{
	"01_Semantic/28_Library.sol": {
		"TestSafeMath": {
			"abi": [
				{
					"inputs": [],
					"name": "MAX_UINT",
					"outputs": [
						{
							"internalType": "uint256",
							"name": "",
							"type": "uint256"
						}
					],
					"stateMutability": "view",
					"type": "function"
				},
				{
					"inputs": [
						{
							"internalType": "uint256",
							"name": "x",
							"type": "uint256"
						},
						{
							"internalType": "uint256",
							"name": "y",
							"type": "uint256"
						}
					],
					"name": "testAdd",
					"outputs": [
						{
							"internalType": "uint256",
							"name": "",
							"type": "uint256"
						}
					],
					"stateMutability": "pure",
					"type": "function"
				},
				{
					"inputs": [
						{
							"internalType": "uint256",
							"name": "x",
							"type": "uint256"
						}
					],
					"name": "testSquareRoot",
					"outputs": [
						{
							"internalType": "uint256",
							"name": "",
							"type": "uint256"
						}
					],
					"stateMutability": "pure",
					"type": "function"
				}
			],
			"devdoc": {
				"kind": "dev",
				"methods": {},
				"version": 1
			},
			"evm": {
				"assembly": "    /* \"01_Semantic/28_Library.sol\":869:1162  contract TestSafeMath {... */\n  mstore(0x40, 0x80)\n    /* \"01_Semantic/28_Library.sol\":950:960  2**256 - 1 */\n  0xffffffffffffffffffffffffffffffffffffffffffffffffffffffffffffffff\n    /* \"01_Semantic/28_Library.sol\":927:960  uint public MAX_UINT = 2**256 - 1 */\n  0x00\n  sstore\n    /* \"01_Semantic/28_Library.sol\":869:1162  contract TestSafeMath {... */\n  callvalue\n  dup1\n  iszero\n  tag_1\n  jumpi\n  0x00\n  dup1\n  revert\ntag_1:\n  pop\n  dataSize(sub_0)\n  dup1\n  dataOffset(sub_0)\n  0x00\n  codecopy\n  0x00\n  return\nstop\n\nsub_0: assembly {\n        /* \"01_Semantic/28_Library.sol\":869:1162  contract TestSafeMath {... */\n      mstore(0x40, 0x80)\n      callvalue\n      dup1\n      iszero\n      tag_1\n      jumpi\n      0x00\n      dup1\n      revert\n    tag_1:\n      pop\n      jumpi(tag_2, lt(calldatasize, 0x04))\n      shr(0xe0, calldataload(0x00))\n      dup1\n      0x6039b0bd\n      eq\n      tag_3\n      jumpi\n      dup1\n      0x7c3ffef2\n      eq\n      tag_4\n      jumpi\n      dup1\n      0xe5b5019a\n      eq\n      tag_5\n      jumpi\n    tag_2:\n      0x00\n      dup1\n      revert\n        /* \"01_Semantic/28_Library.sol\":1065:1160  function testSquareRoot(uint x) public pure returns (uint) {... */\n    tag_3:\n      tag_6\n      0x04\n      dup1\n      calldatasize\n      sub\n      dup2\n      add\n      swap1\n      tag_7\n      swap2\n      swap1\n      tag_8\n      jump\t// in\n    tag_7:\n      tag_9\n      jump\t// in\n    tag_6:\n      mload(0x40)\n      tag_10\n      swap2\n      swap1\n      tag_11\n      jump\t// in\n    tag_10:\n      mload(0x40)\n      dup1\n      swap2\n      sub\n      swap1\n      return\n        /* \"01_Semantic/28_Library.sol\":967:1059  function testAdd(uint x, uint y) public pure returns (uint) {... */\n    tag_4:\n      tag_12\n      0x04\n      dup1\n      calldatasize\n      sub\n      dup2\n      add\n      swap1\n      tag_13\n      swap2\n      swap1\n      tag_14\n      jump\t// in\n    tag_13:\n      tag_15\n      jump\t// in\n    tag_12:\n      mload(0x40)\n      tag_16\n      swap2\n      swap1\n      tag_11\n      jump\t// in\n    tag_16:\n      mload(0x40)\n      dup1\n      swap2\n      sub\n      swap1\n      return\n        /* \"01_Semantic/28_Library.sol\":927:960  uint public MAX_UINT = 2**256 - 1 */\n    tag_5:\n      tag_17\n      tag_18\n      jump\t// in\n    tag_17:\n      mload(0x40)\n      tag_19\n      swap2\n      swap1\n      tag_11\n      jump\t// in\n    tag_19:\n      mload(0x40)\n      dup1\n      swap2\n      sub\n      swap1\n      return\n        /* \"01_Semantic/28_Library.sol\":1065:1160  function testSquareRoot(uint x) public pure returns (uint) {... */\n    tag_9:\n        /* \"01_Semantic/28_Library.sol\":1118:1122  uint */\n      0x00\n        /* \"01_Semantic/28_Library.sol\":1141:1153  Math.sqrt(x) */\n      tag_21\n        /* \"01_Semantic/28_Library.sol\":1151:1152  x */\n      dup3\n        /* \"01_Semantic/28_Library.sol\":1141:1150  Math.sqrt */\n      tag_22\n        /* \"01_Semantic/28_Library.sol\":1141:1153  Math.sqrt(x) */\n      jump\t// in\n    tag_21:\n        /* \"01_Semantic/28_Library.sol\":1134:1153  return Math.sqrt(x) */\n      swap1\n      pop\n        /* \"01_Semantic/28_Library.sol\":1065:1160  function testSquareRoot(uint x) public pure returns (uint) {... */\n      swap2\n      swap1\n      pop\n      jump\t// out\n        /* \"01_Semantic/28_Library.sol\":967:1059  function testAdd(uint x, uint y) public pure returns (uint) {... */\n    tag_15:\n        /* \"01_Semantic/28_Library.sol\":1021:1025  uint */\n      0x00\n        /* \"01_Semantic/28_Library.sol\":1044:1052  x.add(y) */\n      tag_24\n        /* \"01_Semantic/28_Library.sol\":1050:1051  y */\n      dup3\n        /* \"01_Semantic/28_Library.sol\":1044:1045  x */\n      dup5\n        /* \"01_Semantic/28_Library.sol\":1044:1049  x.add */\n      tag_25\n      swap1\n        /* \"01_Semantic/28_Library.sol\":1044:1052  x.add(y) */\n      swap2\n      swap1\n      0xffffffff\n      and\n      jump\t// in\n    tag_24:\n        /* \"01_Semantic/28_Library.sol\":1037:1052  return x.add(y) */\n      swap1\n      pop\n        /* \"01_Semantic/28_Library.sol\":967:1059  function testAdd(uint x, uint y) public pure returns (uint) {... */\n      swap3\n      swap2\n      pop\n      pop\n      jump\t// out\n        /* \"01_Semantic/28_Library.sol\":927:960  uint public MAX_UINT = 2**256 - 1 */\n    tag_18:\n      sload(0x00)\n      dup2\n      jump\t// out\n        /* \"01_Semantic/28_Library.sol\":535:865  function sqrt(uint y) internal pure returns (uint z) {... */\n    tag_22:\n        /* \"01_Semantic/28_Library.sol\":580:586  uint z */\n      0x00\n        /* \"01_Semantic/28_Library.sol\":606:607  3 */\n      0x03\n        /* \"01_Semantic/28_Library.sol\":602:603  y */\n      dup3\n        /* \"01_Semantic/28_Library.sol\":602:607  y > 3 */\n      gt\n        /* \"01_Semantic/28_Library.sol\":598:821  if (y > 3) {... */\n      iszero\n      tag_27\n      jumpi\n        /* \"01_Semantic/28_Library.sol\":627:628  y */\n      dup2\n        /* \"01_Semantic/28_Library.sol\":623:628  z = y */\n      swap1\n      pop\n        /* \"01_Semantic/28_Library.sol\":642:648  uint x */\n      0x00\n        /* \"01_Semantic/28_Library.sol\":659:660  1 */\n      0x01\n        /* \"01_Semantic/28_Library.sol\":655:656  2 */\n      0x02\n        /* \"01_Semantic/28_Library.sol\":651:652  y */\n      dup5\n        /* \"01_Semantic/28_Library.sol\":651:656  y / 2 */\n      tag_28\n      swap2\n      swap1\n      tag_29\n      jump\t// in\n    tag_28:\n        /* \"01_Semantic/28_Library.sol\":651:660  y / 2 + 1 */\n      tag_30\n      swap2\n      swap1\n      tag_31\n      jump\t// in\n    tag_30:\n        /* \"01_Semantic/28_Library.sol\":642:660  uint x = y / 2 + 1 */\n      swap1\n      pop\n        /* \"01_Semantic/28_Library.sol\":674:763  while (x < z) {... */\n    tag_32:\n        /* \"01_Semantic/28_Library.sol\":685:686  z */\n      dup2\n        /* \"01_Semantic/28_Library.sol\":681:682  x */\n      dup2\n        /* \"01_Semantic/28_Library.sol\":681:686  x < z */\n      lt\n        /* \"01_Semantic/28_Library.sol\":674:763  while (x < z) {... */\n      iszero\n      tag_33\n      jumpi\n        /* \"01_Semantic/28_Library.sol\":710:711  x */\n      dup1\n        /* \"01_Semantic/28_Library.sol\":706:711  z = x */\n      swap2\n      pop\n        /* \"01_Semantic/28_Library.sol\":747:748  2 */\n      0x02\n        /* \"01_Semantic/28_Library.sol\":742:743  x */\n      dup2\n        /* \"01_Semantic/28_Library.sol\":738:739  x */\n      dup3\n        /* \"01_Semantic/28_Library.sol\":734:735  y */\n      dup6\n        /* \"01_Semantic/28_Library.sol\":734:739  y / x */\n      tag_34\n      swap2\n      swap1\n      tag_29\n      jump\t// in\n    tag_34:\n        /* \"01_Semantic/28_Library.sol\":734:743  y / x + x */\n      tag_35\n      swap2\n      swap1\n      tag_31\n      jump\t// in\n    tag_35:\n        /* \"01_Semantic/28_Library.sol\":733:748  (y / x + x) / 2 */\n      tag_36\n      swap2\n      swap1\n      tag_29\n      jump\t// in\n    tag_36:\n        /* \"01_Semantic/28_Library.sol\":729:748  x = (y / x + x) / 2 */\n      swap1\n      pop\n        /* \"01_Semantic/28_Library.sol\":674:763  while (x < z) {... */\n      jump(tag_32)\n    tag_33:\n        /* \"01_Semantic/28_Library.sol\":609:773  {... */\n      pop\n        /* \"01_Semantic/28_Library.sol\":598:821  if (y > 3) {... */\n      jump(tag_37)\n    tag_27:\n        /* \"01_Semantic/28_Library.sol\":788:789  0 */\n      0x00\n        /* \"01_Semantic/28_Library.sol\":783:784  y */\n      dup3\n        /* \"01_Semantic/28_Library.sol\":783:789  y != 0 */\n      eq\n        /* \"01_Semantic/28_Library.sol\":779:821  if (y != 0) {... */\n      tag_38\n      jumpi\n        /* \"01_Semantic/28_Library.sol\":809:810  1 */\n      0x01\n        /* \"01_Semantic/28_Library.sol\":805:810  z = 1 */\n      swap1\n      pop\n        /* \"01_Semantic/28_Library.sol\":779:821  if (y != 0) {... */\n    tag_38:\n        /* \"01_Semantic/28_Library.sol\":598:821  if (y > 3) {... */\n    tag_37:\n        /* \"01_Semantic/28_Library.sol\":535:865  function sqrt(uint y) internal pure returns (uint z) {... */\n      swap2\n      swap1\n      pop\n      jump\t// out\n        /* \"01_Semantic/28_Library.sol\":362:512  function add(uint x, uint y) internal pure returns (uint) {... */\n    tag_25:\n        /* \"01_Semantic/28_Library.sol\":414:418  uint */\n      0x00\n        /* \"01_Semantic/28_Library.sol\":430:436  uint z */\n      dup1\n        /* \"01_Semantic/28_Library.sol\":443:444  y */\n      dup3\n        /* \"01_Semantic/28_Library.sol\":439:440  x */\n      dup5\n        /* \"01_Semantic/28_Library.sol\":439:444  x + y */\n      tag_40\n      swap2\n      swap1\n      tag_31\n      jump\t// in\n    tag_40:\n        /* \"01_Semantic/28_Library.sol\":430:444  uint z = x + y */\n      swap1\n      pop\n        /* \"01_Semantic/28_Library.sol\":467:468  x */\n      dup4\n        /* \"01_Semantic/28_Library.sol\":462:463  z */\n      dup2\n        /* \"01_Semantic/28_Library.sol\":462:468  z >= x */\n      lt\n      iszero\n        /* \"01_Semantic/28_Library.sol\":454:486  require(z >= x, \"uint overflow\") */\n      tag_41\n      jumpi\n      mload(0x40)\n      0x08c379a000000000000000000000000000000000000000000000000000000000\n      dup2\n      mstore\n      0x04\n      add\n      tag_42\n      swap1\n      tag_43\n      jump\t// in\n    tag_42:\n      mload(0x40)\n      dup1\n      swap2\n      sub\n      swap1\n      revert\n    tag_41:\n        /* \"01_Semantic/28_Library.sol\":504:505  z */\n      dup1\n        /* \"01_Semantic/28_Library.sol\":497:505  return z */\n      swap2\n      pop\n      pop\n        /* \"01_Semantic/28_Library.sol\":362:512  function add(uint x, uint y) internal pure returns (uint) {... */\n      swap3\n      swap2\n      pop\n      pop\n      jump\t// out\n        /* \"#utility.yul\":88:205   */\n    tag_45:\n        /* \"#utility.yul\":197:198   */\n      0x00\n        /* \"#utility.yul\":194:195   */\n      dup1\n        /* \"#utility.yul\":187:199   */\n      revert\n        /* \"#utility.yul\":334:411   */\n    tag_47:\n        /* \"#utility.yul\":371:378   */\n      0x00\n        /* \"#utility.yul\":400:405   */\n      dup2\n        /* \"#utility.yul\":389:405   */\n      swap1\n      pop\n        /* \"#utility.yul\":334:411   */\n      swap2\n      swap1\n      pop\n      jump\t// out\n        /* \"#utility.yul\":417:539   */\n    tag_48:\n        /* \"#utility.yul\":490:514   */\n      tag_62\n        /* \"#utility.yul\":508:513   */\n      dup2\n        /* \"#utility.yul\":490:514   */\n      tag_47\n      jump\t// in\n    tag_62:\n        /* \"#utility.yul\":483:488   */\n      dup2\n        /* \"#utility.yul\":480:515   */\n      eq\n        /* \"#utility.yul\":470:533   */\n      tag_63\n      jumpi\n        /* \"#utility.yul\":529:530   */\n      0x00\n        /* \"#utility.yul\":526:527   */\n      dup1\n        /* \"#utility.yul\":519:531   */\n      revert\n        /* \"#utility.yul\":470:533   */\n    tag_63:\n        /* \"#utility.yul\":417:539   */\n      pop\n      jump\t// out\n        /* \"#utility.yul\":545:684   */\n    tag_49:\n        /* \"#utility.yul\":591:596   */\n      0x00\n        /* \"#utility.yul\":629:635   */\n      dup2\n        /* \"#utility.yul\":616:636   */\n      calldataload\n        /* \"#utility.yul\":607:636   */\n      swap1\n      pop\n        /* \"#utility.yul\":645:678   */\n      tag_65\n        /* \"#utility.yul\":672:677   */\n      dup2\n        /* \"#utility.yul\":645:678   */\n      tag_48\n      jump\t// in\n    tag_65:\n        /* \"#utility.yul\":545:684   */\n      swap3\n      swap2\n      pop\n      pop\n      jump\t// out\n        /* \"#utility.yul\":690:1019   */\n    tag_8:\n        /* \"#utility.yul\":749:755   */\n      0x00\n        /* \"#utility.yul\":798:800   */\n      0x20\n        /* \"#utility.yul\":786:795   */\n      dup3\n        /* \"#utility.yul\":777:784   */\n      dup5\n        /* \"#utility.yul\":773:796   */\n      sub\n        /* \"#utility.yul\":769:801   */\n      slt\n        /* \"#utility.yul\":766:885   */\n      iszero\n      tag_67\n      jumpi\n        /* \"#utility.yul\":804:883   */\n      tag_68\n      tag_45\n      jump\t// in\n    tag_68:\n        /* \"#utility.yul\":766:885   */\n    tag_67:\n        /* \"#utility.yul\":924:925   */\n      0x00\n        /* \"#utility.yul\":949:1002   */\n      tag_69\n        /* \"#utility.yul\":994:1001   */\n      dup5\n        /* \"#utility.yul\":985:991   */\n      dup3\n        /* \"#utility.yul\":974:983   */\n      dup6\n        /* \"#utility.yul\":970:992   */\n      add\n        /* \"#utility.yul\":949:1002   */\n      tag_49\n      jump\t// in\n    tag_69:\n        /* \"#utility.yul\":939:1002   */\n      swap2\n      pop\n        /* \"#utility.yul\":895:1012   */\n      pop\n        /* \"#utility.yul\":690:1019   */\n      swap3\n      swap2\n      pop\n      pop\n      jump\t// out\n        /* \"#utility.yul\":1025:1143   */\n    tag_50:\n        /* \"#utility.yul\":1112:1136   */\n      tag_71\n        /* \"#utility.yul\":1130:1135   */\n      dup2\n        /* \"#utility.yul\":1112:1136   */\n      tag_47\n      jump\t// in\n    tag_71:\n        /* \"#utility.yul\":1107:1110   */\n      dup3\n        /* \"#utility.yul\":1100:1137   */\n      mstore\n        /* \"#utility.yul\":1025:1143   */\n      pop\n      pop\n      jump\t// out\n        /* \"#utility.yul\":1149:1371   */\n    tag_11:\n        /* \"#utility.yul\":1242:1246   */\n      0x00\n        /* \"#utility.yul\":1280:1282   */\n      0x20\n        /* \"#utility.yul\":1269:1278   */\n      dup3\n        /* \"#utility.yul\":1265:1283   */\n      add\n        /* \"#utility.yul\":1257:1283   */\n      swap1\n      pop\n        /* \"#utility.yul\":1293:1364   */\n      tag_73\n        /* \"#utility.yul\":1361:1362   */\n      0x00\n        /* \"#utility.yul\":1350:1359   */\n      dup4\n        /* \"#utility.yul\":1346:1363   */\n      add\n        /* \"#utility.yul\":1337:1343   */\n      dup5\n        /* \"#utility.yul\":1293:1364   */\n      tag_50\n      jump\t// in\n    tag_73:\n        /* \"#utility.yul\":1149:1371   */\n      swap3\n      swap2\n      pop\n      pop\n      jump\t// out\n        /* \"#utility.yul\":1377:1851   */\n    tag_14:\n        /* \"#utility.yul\":1445:1451   */\n      0x00\n        /* \"#utility.yul\":1453:1459   */\n      dup1\n        /* \"#utility.yul\":1502:1504   */\n      0x40\n        /* \"#utility.yul\":1490:1499   */\n      dup4\n        /* \"#utility.yul\":1481:1488   */\n      dup6\n        /* \"#utility.yul\":1477:1500   */\n      sub\n        /* \"#utility.yul\":1473:1505   */\n      slt\n        /* \"#utility.yul\":1470:1589   */\n      iszero\n      tag_75\n      jumpi\n        /* \"#utility.yul\":1508:1587   */\n      tag_76\n      tag_45\n      jump\t// in\n    tag_76:\n        /* \"#utility.yul\":1470:1589   */\n    tag_75:\n        /* \"#utility.yul\":1628:1629   */\n      0x00\n        /* \"#utility.yul\":1653:1706   */\n      tag_77\n        /* \"#utility.yul\":1698:1705   */\n      dup6\n        /* \"#utility.yul\":1689:1695   */\n      dup3\n        /* \"#utility.yul\":1678:1687   */\n      dup7\n        /* \"#utility.yul\":1674:1696   */\n      add\n        /* \"#utility.yul\":1653:1706   */\n      tag_49\n      jump\t// in\n    tag_77:\n        /* \"#utility.yul\":1643:1706   */\n      swap3\n      pop\n        /* \"#utility.yul\":1599:1716   */\n      pop\n        /* \"#utility.yul\":1755:1757   */\n      0x20\n        /* \"#utility.yul\":1781:1834   */\n      tag_78\n        /* \"#utility.yul\":1826:1833   */\n      dup6\n        /* \"#utility.yul\":1817:1823   */\n      dup3\n        /* \"#utility.yul\":1806:1815   */\n      dup7\n        /* \"#utility.yul\":1802:1824   */\n      add\n        /* \"#utility.yul\":1781:1834   */\n      tag_49\n      jump\t// in\n    tag_78:\n        /* \"#utility.yul\":1771:1834   */\n      swap2\n      pop\n        /* \"#utility.yul\":1726:1844   */\n      pop\n        /* \"#utility.yul\":1377:1851   */\n      swap3\n      pop\n      swap3\n      swap1\n      pop\n      jump\t// out\n        /* \"#utility.yul\":1857:2037   */\n    tag_51:\n        /* \"#utility.yul\":1905:1982   */\n      0x4e487b7100000000000000000000000000000000000000000000000000000000\n        /* \"#utility.yul\":1902:1903   */\n      0x00\n        /* \"#utility.yul\":1895:1983   */\n      mstore\n        /* \"#utility.yul\":2002:2006   */\n      0x12\n        /* \"#utility.yul\":1999:2000   */\n      0x04\n        /* \"#utility.yul\":1992:2007   */\n      mstore\n        /* \"#utility.yul\":2026:2030   */\n      0x24\n        /* \"#utility.yul\":2023:2024   */\n      0x00\n        /* \"#utility.yul\":2016:2031   */\n      revert\n        /* \"#utility.yul\":2043:2223   */\n    tag_52:\n        /* \"#utility.yul\":2091:2168   */\n      0x4e487b7100000000000000000000000000000000000000000000000000000000\n        /* \"#utility.yul\":2088:2089   */\n      0x00\n        /* \"#utility.yul\":2081:2169   */\n      mstore\n        /* \"#utility.yul\":2188:2192   */\n      0x11\n        /* \"#utility.yul\":2185:2186   */\n      0x04\n        /* \"#utility.yul\":2178:2193   */\n      mstore\n        /* \"#utility.yul\":2212:2216   */\n      0x24\n        /* \"#utility.yul\":2209:2210   */\n      0x00\n        /* \"#utility.yul\":2202:2217   */\n      revert\n        /* \"#utility.yul\":2229:2414   */\n    tag_29:\n        /* \"#utility.yul\":2269:2270   */\n      0x00\n        /* \"#utility.yul\":2286:2306   */\n      tag_82\n        /* \"#utility.yul\":2304:2305   */\n      dup3\n        /* \"#utility.yul\":2286:2306   */\n      tag_47\n      jump\t// in\n    tag_82:\n        /* \"#utility.yul\":2281:2306   */\n      swap2\n      pop\n        /* \"#utility.yul\":2320:2340   */\n      tag_83\n        /* \"#utility.yul\":2338:2339   */\n      dup4\n        /* \"#utility.yul\":2320:2340   */\n      tag_47\n      jump\t// in\n    tag_83:\n        /* \"#utility.yul\":2315:2340   */\n      swap3\n      pop\n        /* \"#utility.yul\":2359:2360   */\n      dup3\n        /* \"#utility.yul\":2349:2384   */\n      tag_84\n      jumpi\n        /* \"#utility.yul\":2364:2382   */\n      tag_85\n      tag_51\n      jump\t// in\n    tag_85:\n        /* \"#utility.yul\":2349:2384   */\n    tag_84:\n        /* \"#utility.yul\":2406:2407   */\n      dup3\n        /* \"#utility.yul\":2403:2404   */\n      dup3\n        /* \"#utility.yul\":2399:2408   */\n      div\n        /* \"#utility.yul\":2394:2408   */\n      swap1\n      pop\n        /* \"#utility.yul\":2229:2414   */\n      swap3\n      swap2\n      pop\n      pop\n      jump\t// out\n        /* \"#utility.yul\":2420:2725   */\n    tag_31:\n        /* \"#utility.yul\":2460:2463   */\n      0x00\n        /* \"#utility.yul\":2479:2499   */\n      tag_87\n        /* \"#utility.yul\":2497:2498   */\n      dup3\n        /* \"#utility.yul\":2479:2499   */\n      tag_47\n      jump\t// in\n    tag_87:\n        /* \"#utility.yul\":2474:2499   */\n      swap2\n      pop\n        /* \"#utility.yul\":2513:2533   */\n      tag_88\n        /* \"#utility.yul\":2531:2532   */\n      dup4\n        /* \"#utility.yul\":2513:2533   */\n      tag_47\n      jump\t// in\n    tag_88:\n        /* \"#utility.yul\":2508:2533   */\n      swap3\n      pop\n        /* \"#utility.yul\":2667:2668   */\n      dup3\n        /* \"#utility.yul\":2599:2665   */\n      0xffffffffffffffffffffffffffffffffffffffffffffffffffffffffffffffff\n        /* \"#utility.yul\":2595:2669   */\n      sub\n        /* \"#utility.yul\":2592:2593   */\n      dup3\n        /* \"#utility.yul\":2589:2670   */\n      gt\n        /* \"#utility.yul\":2586:2693   */\n      iszero\n      tag_89\n      jumpi\n        /* \"#utility.yul\":2673:2691   */\n      tag_90\n      tag_52\n      jump\t// in\n    tag_90:\n        /* \"#utility.yul\":2586:2693   */\n    tag_89:\n        /* \"#utility.yul\":2717:2718   */\n      dup3\n        /* \"#utility.yul\":2714:2715   */\n      dup3\n        /* \"#utility.yul\":2710:2719   */\n      add\n        /* \"#utility.yul\":2703:2719   */\n      swap1\n      pop\n        /* \"#utility.yul\":2420:2725   */\n      swap3\n      swap2\n      pop\n      pop\n      jump\t// out\n        /* \"#utility.yul\":2731:2900   */\n    tag_53:\n        /* \"#utility.yul\":2815:2826   */\n      0x00\n        /* \"#utility.yul\":2849:2855   */\n      dup3\n        /* \"#utility.yul\":2844:2847   */\n      dup3\n        /* \"#utility.yul\":2837:2856   */\n      mstore\n        /* \"#utility.yul\":2889:2893   */\n      0x20\n        /* \"#utility.yul\":2884:2887   */\n      dup3\n        /* \"#utility.yul\":2880:2894   */\n      add\n        /* \"#utility.yul\":2865:2894   */\n      swap1\n      pop\n        /* \"#utility.yul\":2731:2900   */\n      swap3\n      swap2\n      pop\n      pop\n      jump\t// out\n        /* \"#utility.yul\":2906:3069   */\n    tag_54:\n        /* \"#utility.yul\":3046:3061   */\n      0x75696e74206f766572666c6f7700000000000000000000000000000000000000\n        /* \"#utility.yul\":3042:3043   */\n      0x00\n        /* \"#utility.yul\":3034:3040   */\n      dup3\n        /* \"#utility.yul\":3030:3044   */\n      add\n        /* \"#utility.yul\":3023:3062   */\n      mstore\n        /* \"#utility.yul\":2906:3069   */\n      pop\n      jump\t// out\n        /* \"#utility.yul\":3075:3441   */\n    tag_55:\n        /* \"#utility.yul\":3217:3220   */\n      0x00\n        /* \"#utility.yul\":3238:3305   */\n      tag_94\n        /* \"#utility.yul\":3302:3304   */\n      0x0d\n        /* \"#utility.yul\":3297:3300   */\n      dup4\n        /* \"#utility.yul\":3238:3305   */\n      tag_53\n      jump\t// in\n    tag_94:\n        /* \"#utility.yul\":3231:3305   */\n      swap2\n      pop\n        /* \"#utility.yul\":3314:3407   */\n      tag_95\n        /* \"#utility.yul\":3403:3406   */\n      dup3\n        /* \"#utility.yul\":3314:3407   */\n      tag_54\n      jump\t// in\n    tag_95:\n        /* \"#utility.yul\":3432:3434   */\n      0x20\n        /* \"#utility.yul\":3427:3430   */\n      dup3\n        /* \"#utility.yul\":3423:3435   */\n      add\n        /* \"#utility.yul\":3416:3435   */\n      swap1\n      pop\n        /* \"#utility.yul\":3075:3441   */\n      swap2\n      swap1\n      pop\n      jump\t// out\n        /* \"#utility.yul\":3447:3866   */\n    tag_43:\n        /* \"#utility.yul\":3613:3617   */\n      0x00\n        /* \"#utility.yul\":3651:3653   */\n      0x20\n        /* \"#utility.yul\":3640:3649   */\n      dup3\n        /* \"#utility.yul\":3636:3654   */\n      add\n        /* \"#utility.yul\":3628:3654   */\n      swap1\n      pop\n        /* \"#utility.yul\":3700:3709   */\n      dup2\n        /* \"#utility.yul\":3694:3698   */\n      dup2\n        /* \"#utility.yul\":3690:3710   */\n      sub\n        /* \"#utility.yul\":3686:3687   */\n      0x00\n        /* \"#utility.yul\":3675:3684   */\n      dup4\n        /* \"#utility.yul\":3671:3688   */\n      add\n        /* \"#utility.yul\":3664:3711   */\n      mstore\n        /* \"#utility.yul\":3728:3859   */\n      tag_97\n        /* \"#utility.yul\":3854:3858   */\n      dup2\n        /* \"#utility.yul\":3728:3859   */\n      tag_55\n      jump\t// in\n    tag_97:\n        /* \"#utility.yul\":3720:3859   */\n      swap1\n      pop\n        /* \"#utility.yul\":3447:3866   */\n      swap2\n      swap1\n      pop\n      jump\t// out\n\n    auxdata: 0xa264697066735822122031c7780cc36d7d19783a4979584b5877f7a1ef011facda6d9f2bf8be685776fc64736f6c634300080e0033\n}\n",
				"bytecode": {
					"linkReferences": {},
					"object": "60806040527fffffffffffffffffffffffffffffffffffffffffffffffffffffffffffffffff60005534801561003457600080fd5b5061043b806100446000396000f3fe608060405234801561001057600080fd5b50600436106100415760003560e01c80636039b0bd146100465780637c3ffef214610076578063e5b5019a146100a6575b600080fd5b610060600480360381019061005b919061020c565b6100c4565b60405161006d9190610248565b60405180910390f35b610090600480360381019061008b9190610263565b6100d6565b60405161009d9190610248565b60405180910390f35b6100ae6100f3565b6040516100bb9190610248565b60405180910390f35b60006100cf826100f9565b9050919050565b60006100eb828461017390919063ffffffff16565b905092915050565b60005481565b6000600382111561016057819050600060016002846101189190610301565b6101229190610332565b90505b8181101561015a57809150600281828561013f9190610301565b6101499190610332565b6101539190610301565b9050610125565b5061016e565b6000821461016d57600190505b5b919050565b60008082846101829190610332565b9050838110156101c7576040517f08c379a00000000000000000000000000000000000000000000000000000000081526004016101be906103e5565b60405180910390fd5b8091505092915050565b600080fd5b6000819050919050565b6101e9816101d6565b81146101f457600080fd5b50565b600081359050610206816101e0565b92915050565b600060208284031215610222576102216101d1565b5b6000610230848285016101f7565b91505092915050565b610242816101d6565b82525050565b600060208201905061025d6000830184610239565b92915050565b6000806040838503121561027a576102796101d1565b5b6000610288858286016101f7565b9250506020610299858286016101f7565b9150509250929050565b7f4e487b7100000000000000000000000000000000000000000000000000000000600052601260045260246000fd5b7f4e487b7100000000000000000000000000000000000000000000000000000000600052601160045260246000fd5b600061030c826101d6565b9150610317836101d6565b925082610327576103266102a3565b5b828204905092915050565b600061033d826101d6565b9150610348836101d6565b9250827fffffffffffffffffffffffffffffffffffffffffffffffffffffffffffffffff0382111561037d5761037c6102d2565b5b828201905092915050565b600082825260208201905092915050565b7f75696e74206f766572666c6f7700000000000000000000000000000000000000600082015250565b60006103cf600d83610388565b91506103da82610399565b602082019050919050565b600060208201905081810360008301526103fe816103c2565b905091905056fea264697066735822122031c7780cc36d7d19783a4979584b5877f7a1ef011facda6d9f2bf8be685776fc64736f6c634300080e0033",
					"opcodes": "PUSH1 0x80 PUSH1 0x40 MSTORE PUSH32 0xFFFFFFFFFFFFFFFFFFFFFFFFFFFFFFFFFFFFFFFFFFFFFFFFFFFFFFFFFFFFFFFF PUSH1 0x0 SSTORE CALLVALUE DUP1 ISZERO PUSH2 0x34 JUMPI PUSH1 0x0 DUP1 REVERT JUMPDEST POP PUSH2 0x43B DUP1 PUSH2 0x44 PUSH1 0x0 CODECOPY PUSH1 0x0 RETURN INVALID PUSH1 0x80 PUSH1 0x40 MSTORE CALLVALUE DUP1 ISZERO PUSH2 0x10 JUMPI PUSH1 0x0 DUP1 REVERT JUMPDEST POP PUSH1 0x4 CALLDATASIZE LT PUSH2 0x41 JUMPI PUSH1 0x0 CALLDATALOAD PUSH1 0xE0 SHR DUP1 PUSH4 0x6039B0BD EQ PUSH2 0x46 JUMPI DUP1 PUSH4 0x7C3FFEF2 EQ PUSH2 0x76 JUMPI DUP1 PUSH4 0xE5B5019A EQ PUSH2 0xA6 JUMPI JUMPDEST PUSH1 0x0 DUP1 REVERT JUMPDEST PUSH2 0x60 PUSH1 0x4 DUP1 CALLDATASIZE SUB DUP2 ADD SWAP1 PUSH2 0x5B SWAP2 SWAP1 PUSH2 0x20C JUMP JUMPDEST PUSH2 0xC4 JUMP JUMPDEST PUSH1 0x40 MLOAD PUSH2 0x6D SWAP2 SWAP1 PUSH2 0x248 JUMP JUMPDEST PUSH1 0x40 MLOAD DUP1 SWAP2 SUB SWAP1 RETURN JUMPDEST PUSH2 0x90 PUSH1 0x4 DUP1 CALLDATASIZE SUB DUP2 ADD SWAP1 PUSH2 0x8B SWAP2 SWAP1 PUSH2 0x263 JUMP JUMPDEST PUSH2 0xD6 JUMP JUMPDEST PUSH1 0x40 MLOAD PUSH2 0x9D SWAP2 SWAP1 PUSH2 0x248 JUMP JUMPDEST PUSH1 0x40 MLOAD DUP1 SWAP2 SUB SWAP1 RETURN JUMPDEST PUSH2 0xAE PUSH2 0xF3 JUMP JUMPDEST PUSH1 0x40 MLOAD PUSH2 0xBB SWAP2 SWAP1 PUSH2 0x248 JUMP JUMPDEST PUSH1 0x40 MLOAD DUP1 SWAP2 SUB SWAP1 RETURN JUMPDEST PUSH1 0x0 PUSH2 0xCF DUP3 PUSH2 0xF9 JUMP JUMPDEST SWAP1 POP SWAP2 SWAP1 POP JUMP JUMPDEST PUSH1 0x0 PUSH2 0xEB DUP3 DUP5 PUSH2 0x173 SWAP1 SWAP2 SWAP1 PUSH4 0xFFFFFFFF AND JUMP JUMPDEST SWAP1 POP SWAP3 SWAP2 POP POP JUMP JUMPDEST PUSH1 0x0 SLOAD DUP2 JUMP JUMPDEST PUSH1 0x0 PUSH1 0x3 DUP3 GT ISZERO PUSH2 0x160 JUMPI DUP2 SWAP1 POP PUSH1 0x0 PUSH1 0x1 PUSH1 0x2 DUP5 PUSH2 0x118 SWAP2 SWAP1 PUSH2 0x301 JUMP JUMPDEST PUSH2 0x122 SWAP2 SWAP1 PUSH2 0x332 JUMP JUMPDEST SWAP1 POP JUMPDEST DUP2 DUP2 LT ISZERO PUSH2 0x15A JUMPI DUP1 SWAP2 POP PUSH1 0x2 DUP2 DUP3 DUP6 PUSH2 0x13F SWAP2 SWAP1 PUSH2 0x301 JUMP JUMPDEST PUSH2 0x149 SWAP2 SWAP1 PUSH2 0x332 JUMP JUMPDEST PUSH2 0x153 SWAP2 SWAP1 PUSH2 0x301 JUMP JUMPDEST SWAP1 POP PUSH2 0x125 JUMP JUMPDEST POP PUSH2 0x16E JUMP JUMPDEST PUSH1 0x0 DUP3 EQ PUSH2 0x16D JUMPI PUSH1 0x1 SWAP1 POP JUMPDEST JUMPDEST SWAP2 SWAP1 POP JUMP JUMPDEST PUSH1 0x0 DUP1 DUP3 DUP5 PUSH2 0x182 SWAP2 SWAP1 PUSH2 0x332 JUMP JUMPDEST SWAP1 POP DUP4 DUP2 LT ISZERO PUSH2 0x1C7 JUMPI PUSH1 0x40 MLOAD PUSH32 0x8C379A000000000000000000000000000000000000000000000000000000000 DUP2 MSTORE PUSH1 0x4 ADD PUSH2 0x1BE SWAP1 PUSH2 0x3E5 JUMP JUMPDEST PUSH1 0x40 MLOAD DUP1 SWAP2 SUB SWAP1 REVERT JUMPDEST DUP1 SWAP2 POP POP SWAP3 SWAP2 POP POP JUMP JUMPDEST PUSH1 0x0 DUP1 REVERT JUMPDEST PUSH1 0x0 DUP2 SWAP1 POP SWAP2 SWAP1 POP JUMP JUMPDEST PUSH2 0x1E9 DUP2 PUSH2 0x1D6 JUMP JUMPDEST DUP2 EQ PUSH2 0x1F4 JUMPI PUSH1 0x0 DUP1 REVERT JUMPDEST POP JUMP JUMPDEST PUSH1 0x0 DUP2 CALLDATALOAD SWAP1 POP PUSH2 0x206 DUP2 PUSH2 0x1E0 JUMP JUMPDEST SWAP3 SWAP2 POP POP JUMP JUMPDEST PUSH1 0x0 PUSH1 0x20 DUP3 DUP5 SUB SLT ISZERO PUSH2 0x222 JUMPI PUSH2 0x221 PUSH2 0x1D1 JUMP JUMPDEST JUMPDEST PUSH1 0x0 PUSH2 0x230 DUP5 DUP3 DUP6 ADD PUSH2 0x1F7 JUMP JUMPDEST SWAP2 POP POP SWAP3 SWAP2 POP POP JUMP JUMPDEST PUSH2 0x242 DUP2 PUSH2 0x1D6 JUMP JUMPDEST DUP3 MSTORE POP POP JUMP JUMPDEST PUSH1 0x0 PUSH1 0x20 DUP3 ADD SWAP1 POP PUSH2 0x25D PUSH1 0x0 DUP4 ADD DUP5 PUSH2 0x239 JUMP JUMPDEST SWAP3 SWAP2 POP POP JUMP JUMPDEST PUSH1 0x0 DUP1 PUSH1 0x40 DUP4 DUP6 SUB SLT ISZERO PUSH2 0x27A JUMPI PUSH2 0x279 PUSH2 0x1D1 JUMP JUMPDEST JUMPDEST PUSH1 0x0 PUSH2 0x288 DUP6 DUP3 DUP7 ADD PUSH2 0x1F7 JUMP JUMPDEST SWAP3 POP POP PUSH1 0x20 PUSH2 0x299 DUP6 DUP3 DUP7 ADD PUSH2 0x1F7 JUMP JUMPDEST SWAP2 POP POP SWAP3 POP SWAP3 SWAP1 POP JUMP JUMPDEST PUSH32 0x4E487B7100000000000000000000000000000000000000000000000000000000 PUSH1 0x0 MSTORE PUSH1 0x12 PUSH1 0x4 MSTORE PUSH1 0x24 PUSH1 0x0 REVERT JUMPDEST PUSH32 0x4E487B7100000000000000000000000000000000000000000000000000000000 PUSH1 0x0 MSTORE PUSH1 0x11 PUSH1 0x4 MSTORE PUSH1 0x24 PUSH1 0x0 REVERT JUMPDEST PUSH1 0x0 PUSH2 0x30C DUP3 PUSH2 0x1D6 JUMP JUMPDEST SWAP2 POP PUSH2 0x317 DUP4 PUSH2 0x1D6 JUMP JUMPDEST SWAP3 POP DUP3 PUSH2 0x327 JUMPI PUSH2 0x326 PUSH2 0x2A3 JUMP JUMPDEST JUMPDEST DUP3 DUP3 DIV SWAP1 POP SWAP3 SWAP2 POP POP JUMP JUMPDEST PUSH1 0x0 PUSH2 0x33D DUP3 PUSH2 0x1D6 JUMP JUMPDEST SWAP2 POP PUSH2 0x348 DUP4 PUSH2 0x1D6 JUMP JUMPDEST SWAP3 POP DUP3 PUSH32 0xFFFFFFFFFFFFFFFFFFFFFFFFFFFFFFFFFFFFFFFFFFFFFFFFFFFFFFFFFFFFFFFF SUB DUP3 GT ISZERO PUSH2 0x37D JUMPI PUSH2 0x37C PUSH2 0x2D2 JUMP JUMPDEST JUMPDEST DUP3 DUP3 ADD SWAP1 POP SWAP3 SWAP2 POP POP JUMP JUMPDEST PUSH1 0x0 DUP3 DUP3 MSTORE PUSH1 0x20 DUP3 ADD SWAP1 POP SWAP3 SWAP2 POP POP JUMP JUMPDEST PUSH32 0x75696E74206F766572666C6F7700000000000000000000000000000000000000 PUSH1 0x0 DUP3 ADD MSTORE POP JUMP JUMPDEST PUSH1 0x0 PUSH2 0x3CF PUSH1 0xD DUP4 PUSH2 0x388 JUMP JUMPDEST SWAP2 POP PUSH2 0x3DA DUP3 PUSH2 0x399 JUMP JUMPDEST PUSH1 0x20 DUP3 ADD SWAP1 POP SWAP2 SWAP1 POP JUMP JUMPDEST PUSH1 0x0 PUSH1 0x20 DUP3 ADD SWAP1 POP DUP2 DUP2 SUB PUSH1 0x0 DUP4 ADD MSTORE PUSH2 0x3FE DUP2 PUSH2 0x3C2 JUMP JUMPDEST SWAP1 POP SWAP2 SWAP1 POP JUMP INVALID LOG2 PUSH5 0x6970667358 0x22 SLT KECCAK256 BALANCE 0xC7 PUSH25 0xCC36D7D19783A4979584B5877F7A1EF011FACDA6D9F2BF8BE PUSH9 0x5776FC64736F6C6343 STOP ADDMOD 0xE STOP CALLER "
				},
				"gasEstimates": {
					"creation": {
						"codeDepositCost": "216600",
						"executionCost": "22363",
						"totalCost": "238963"
					},
					"external": {
						"MAX_UINT()": "2451",
						"testAdd(uint256,uint256)": "infinite",
						"testSquareRoot(uint256)": "infinite"
					}
				},
				"methodIdentifiers": {
					"MAX_UINT()": "e5b5019a",
					"testAdd(uint256,uint256)": "7c3ffef2",
					"testSquareRoot(uint256)": "6039b0bd"
				}
			},
			"storageLayout": {
				"storage": [
					{
						"astId": 92,
						"contract": "01_Semantic/28_Library.sol:TestSafeMath",
						"label": "MAX_UINT",
						"offset": 0,
						"slot": "0",
						"type": "t_uint256"
					}
				],
				"types": {
					"t_uint256": {
						"encoding": "inplace",
						"label": "uint256",
						"numberOfBytes": "32"
					}
				}
			},
			"userdoc": {
				"kind": "user",
				"methods": {},
				"version": 1
			}
		}
	}
}