{
	"01_Semantic/29_Keccak256.sol": {
		"HashFunction": {
			"abi": [
				{
					"inputs": [
						{
							"internalType": "string",
							"name": "_text",
							"type": "string"
						},
						{
							"internalType": "string",
							"name": "_anotherText",
							"type": "string"
						}
					],
					"name": "collision",
					"outputs": [
						{
							"internalType": "bytes32",
							"name": "",
							"type": "bytes32"
						}
					],
					"stateMutability": "pure",
					"type": "function"
				},
				{
					"inputs": [
						{
							"internalType": "string",
							"name": "_text",
							"type": "string"
						},
						{
							"internalType": "uint256",
							"name": "_num",
							"type": "uint256"
						},
						{
							"internalType": "address",
							"name": "_addr",
							"type": "address"
						}
					],
					"name": "hash",
					"outputs": [
						{
							"internalType": "bytes32",
							"name": "",
							"type": "bytes32"
						}
					],
					"stateMutability": "pure",
					"type": "function"
				}
			],
			"devdoc": {
				"kind": "dev",
				"methods": {},
				"version": 1
			},
			"evm": {
				"assembly": "    /* \"01_Semantic/29_Keccak256.sol\":305:1007  contract HashFunction {... */\n  mstore(0x40, 0x80)\n  callvalue\n  dup1\n  iszero\n  tag_1\n  jumpi\n  0x00\n  dup1\n  revert\ntag_1:\n  pop\n  dataSize(sub_0)\n  dup1\n  dataOffset(sub_0)\n  0x00\n  codecopy\n  0x00\n  return\nstop\n\nsub_0: assembly {\n        /* \"01_Semantic/29_Keccak256.sol\":305:1007  contract HashFunction {... */\n      mstore(0x40, 0x80)\n      callvalue\n      dup1\n      iszero\n      tag_1\n      jumpi\n      0x00\n      dup1\n      revert\n    tag_1:\n      pop\n      jumpi(tag_2, lt(calldatasize, 0x04))\n      shr(0xe0, calldataload(0x00))\n      dup1\n      0x5dda416e\n      eq\n      tag_3\n      jumpi\n      dup1\n      0x7b7fb982\n      eq\n      tag_4\n      jumpi\n    tag_2:\n      0x00\n      dup1\n      revert\n        /* \"01_Semantic/29_Keccak256.sol\":333:525  function hash(... */\n    tag_3:\n      tag_5\n      0x04\n      dup1\n      calldatasize\n      sub\n      dup2\n      add\n      swap1\n      tag_6\n      swap2\n      swap1\n      tag_7\n      jump\t// in\n    tag_6:\n      tag_8\n      jump\t// in\n    tag_5:\n      mload(0x40)\n      tag_9\n      swap2\n      swap1\n      tag_10\n      jump\t// in\n    tag_9:\n      mload(0x40)\n      dup1\n      swap2\n      sub\n      swap1\n      return\n        /* \"01_Semantic/29_Keccak256.sol\":719:1005  function collision(string memory _text, string memory _anotherText)... */\n    tag_4:\n      tag_11\n      0x04\n      dup1\n      calldatasize\n      sub\n      dup2\n      add\n      swap1\n      tag_12\n      swap2\n      swap1\n      tag_13\n      jump\t// in\n    tag_12:\n      tag_14\n      jump\t// in\n    tag_11:\n      mload(0x40)\n      tag_15\n      swap2\n      swap1\n      tag_10\n      jump\t// in\n    tag_15:\n      mload(0x40)\n      dup1\n      swap2\n      sub\n      swap1\n      return\n        /* \"01_Semantic/29_Keccak256.sol\":333:525  function hash(... */\n    tag_8:\n        /* \"01_Semantic/29_Keccak256.sol\":445:452  bytes32 */\n      0x00\n        /* \"01_Semantic/29_Keccak256.sol\":498:503  _text */\n      dup4\n        /* \"01_Semantic/29_Keccak256.sol\":505:509  _num */\n      dup4\n        /* \"01_Semantic/29_Keccak256.sol\":511:516  _addr */\n      dup4\n        /* \"01_Semantic/29_Keccak256.sol\":481:517  abi.encodePacked(_text, _num, _addr) */\n      add(0x20, mload(0x40))\n      tag_17\n      swap4\n      swap3\n      swap2\n      swap1\n      tag_18\n      jump\t// in\n    tag_17:\n      mload(0x40)\n      0x20\n      dup2\n      dup4\n      sub\n      sub\n      dup2\n      mstore\n      swap1\n      0x40\n      mstore\n        /* \"01_Semantic/29_Keccak256.sol\":471:518  keccak256(abi.encodePacked(_text, _num, _addr)) */\n      dup1\n      mload\n      swap1\n      0x20\n      add\n      keccak256\n        /* \"01_Semantic/29_Keccak256.sol\":464:518  return keccak256(abi.encodePacked(_text, _num, _addr)) */\n      swap1\n      pop\n        /* \"01_Semantic/29_Keccak256.sol\":333:525  function hash(... */\n      swap4\n      swap3\n      pop\n      pop\n      pop\n      jump\t// out\n        /* \"01_Semantic/29_Keccak256.sol\":719:1005  function collision(string memory _text, string memory _anotherText)... */\n    tag_14:\n        /* \"01_Semantic/29_Keccak256.sol\":832:839  bytes32 */\n      0x00\n        /* \"01_Semantic/29_Keccak256.sol\":977:982  _text */\n      dup3\n        /* \"01_Semantic/29_Keccak256.sol\":984:996  _anotherText */\n      dup3\n        /* \"01_Semantic/29_Keccak256.sol\":960:997  abi.encodePacked(_text, _anotherText) */\n      add(0x20, mload(0x40))\n      tag_20\n      swap3\n      swap2\n      swap1\n      tag_21\n      jump\t// in\n    tag_20:\n      mload(0x40)\n      0x20\n      dup2\n      dup4\n      sub\n      sub\n      dup2\n      mstore\n      swap1\n      0x40\n      mstore\n        /* \"01_Semantic/29_Keccak256.sol\":950:998  keccak256(abi.encodePacked(_text, _anotherText)) */\n      dup1\n      mload\n      swap1\n      0x20\n      add\n      keccak256\n        /* \"01_Semantic/29_Keccak256.sol\":943:998  return keccak256(abi.encodePacked(_text, _anotherText)) */\n      swap1\n      pop\n        /* \"01_Semantic/29_Keccak256.sol\":719:1005  function collision(string memory _text, string memory _anotherText)... */\n      swap3\n      swap2\n      pop\n      pop\n      jump\t// out\n        /* \"#utility.yul\":7:82   */\n    tag_22:\n        /* \"#utility.yul\":40:46   */\n      0x00\n        /* \"#utility.yul\":73:75   */\n      0x40\n        /* \"#utility.yul\":67:76   */\n      mload\n        /* \"#utility.yul\":57:76   */\n      swap1\n      pop\n        /* \"#utility.yul\":7:82   */\n      swap1\n      jump\t// out\n        /* \"#utility.yul\":88:205   */\n    tag_23:\n        /* \"#utility.yul\":197:198   */\n      0x00\n        /* \"#utility.yul\":194:195   */\n      dup1\n        /* \"#utility.yul\":187:199   */\n      revert\n        /* \"#utility.yul\":211:328   */\n    tag_24:\n        /* \"#utility.yul\":320:321   */\n      0x00\n        /* \"#utility.yul\":317:318   */\n      dup1\n        /* \"#utility.yul\":310:322   */\n      revert\n        /* \"#utility.yul\":334:451   */\n    tag_25:\n        /* \"#utility.yul\":443:444   */\n      0x00\n        /* \"#utility.yul\":440:441   */\n      dup1\n        /* \"#utility.yul\":433:445   */\n      revert\n        /* \"#utility.yul\":457:574   */\n    tag_26:\n        /* \"#utility.yul\":566:567   */\n      0x00\n        /* \"#utility.yul\":563:564   */\n      dup1\n        /* \"#utility.yul\":556:568   */\n      revert\n        /* \"#utility.yul\":580:682   */\n    tag_27:\n        /* \"#utility.yul\":621:627   */\n      0x00\n        /* \"#utility.yul\":672:674   */\n      0x1f\n        /* \"#utility.yul\":668:675   */\n      not\n        /* \"#utility.yul\":663:665   */\n      0x1f\n        /* \"#utility.yul\":656:661   */\n      dup4\n        /* \"#utility.yul\":652:666   */\n      add\n        /* \"#utility.yul\":648:676   */\n      and\n        /* \"#utility.yul\":638:676   */\n      swap1\n      pop\n        /* \"#utility.yul\":580:682   */\n      swap2\n      swap1\n      pop\n      jump\t// out\n        /* \"#utility.yul\":688:868   */\n    tag_28:\n        /* \"#utility.yul\":736:813   */\n      0x4e487b7100000000000000000000000000000000000000000000000000000000\n        /* \"#utility.yul\":733:734   */\n      0x00\n        /* \"#utility.yul\":726:814   */\n      mstore\n        /* \"#utility.yul\":833:837   */\n      0x41\n        /* \"#utility.yul\":830:831   */\n      0x04\n        /* \"#utility.yul\":823:838   */\n      mstore\n        /* \"#utility.yul\":857:861   */\n      0x24\n        /* \"#utility.yul\":854:855   */\n      0x00\n        /* \"#utility.yul\":847:862   */\n      revert\n        /* \"#utility.yul\":874:1155   */\n    tag_29:\n        /* \"#utility.yul\":957:984   */\n      tag_63\n        /* \"#utility.yul\":979:983   */\n      dup3\n        /* \"#utility.yul\":957:984   */\n      tag_27\n      jump\t// in\n    tag_63:\n        /* \"#utility.yul\":949:955   */\n      dup2\n        /* \"#utility.yul\":945:985   */\n      add\n        /* \"#utility.yul\":1087:1093   */\n      dup2\n        /* \"#utility.yul\":1075:1085   */\n      dup2\n        /* \"#utility.yul\":1072:1094   */\n      lt\n        /* \"#utility.yul\":1051:1069   */\n      0xffffffffffffffff\n        /* \"#utility.yul\":1039:1049   */\n      dup3\n        /* \"#utility.yul\":1036:1070   */\n      gt\n        /* \"#utility.yul\":1033:1095   */\n      or\n        /* \"#utility.yul\":1030:1118   */\n      iszero\n      tag_64\n      jumpi\n        /* \"#utility.yul\":1098:1116   */\n      tag_65\n      tag_28\n      jump\t// in\n    tag_65:\n        /* \"#utility.yul\":1030:1118   */\n    tag_64:\n        /* \"#utility.yul\":1138:1148   */\n      dup1\n        /* \"#utility.yul\":1134:1136   */\n      0x40\n        /* \"#utility.yul\":1127:1149   */\n      mstore\n        /* \"#utility.yul\":917:1155   */\n      pop\n        /* \"#utility.yul\":874:1155   */\n      pop\n      pop\n      jump\t// out\n        /* \"#utility.yul\":1161:1290   */\n    tag_30:\n        /* \"#utility.yul\":1195:1201   */\n      0x00\n        /* \"#utility.yul\":1222:1242   */\n      tag_67\n      tag_22\n      jump\t// in\n    tag_67:\n        /* \"#utility.yul\":1212:1242   */\n      swap1\n      pop\n        /* \"#utility.yul\":1251:1284   */\n      tag_68\n        /* \"#utility.yul\":1279:1283   */\n      dup3\n        /* \"#utility.yul\":1271:1277   */\n      dup3\n        /* \"#utility.yul\":1251:1284   */\n      tag_29\n      jump\t// in\n    tag_68:\n        /* \"#utility.yul\":1161:1290   */\n      swap2\n      swap1\n      pop\n      jump\t// out\n        /* \"#utility.yul\":1296:1604   */\n    tag_31:\n        /* \"#utility.yul\":1358:1362   */\n      0x00\n        /* \"#utility.yul\":1448:1466   */\n      0xffffffffffffffff\n        /* \"#utility.yul\":1440:1446   */\n      dup3\n        /* \"#utility.yul\":1437:1467   */\n      gt\n        /* \"#utility.yul\":1434:1490   */\n      iszero\n      tag_70\n      jumpi\n        /* \"#utility.yul\":1470:1488   */\n      tag_71\n      tag_28\n      jump\t// in\n    tag_71:\n        /* \"#utility.yul\":1434:1490   */\n    tag_70:\n        /* \"#utility.yul\":1508:1537   */\n      tag_72\n        /* \"#utility.yul\":1530:1536   */\n      dup3\n        /* \"#utility.yul\":1508:1537   */\n      tag_27\n      jump\t// in\n    tag_72:\n        /* \"#utility.yul\":1500:1537   */\n      swap1\n      pop\n        /* \"#utility.yul\":1592:1596   */\n      0x20\n        /* \"#utility.yul\":1586:1590   */\n      dup2\n        /* \"#utility.yul\":1582:1597   */\n      add\n        /* \"#utility.yul\":1574:1597   */\n      swap1\n      pop\n        /* \"#utility.yul\":1296:1604   */\n      swap2\n      swap1\n      pop\n      jump\t// out\n        /* \"#utility.yul\":1610:1764   */\n    tag_32:\n        /* \"#utility.yul\":1694:1700   */\n      dup3\n        /* \"#utility.yul\":1689:1692   */\n      dup2\n        /* \"#utility.yul\":1684:1687   */\n      dup4\n        /* \"#utility.yul\":1671:1701   */\n      calldatacopy\n        /* \"#utility.yul\":1756:1757   */\n      0x00\n        /* \"#utility.yul\":1747:1753   */\n      dup4\n        /* \"#utility.yul\":1742:1745   */\n      dup4\n        /* \"#utility.yul\":1738:1754   */\n      add\n        /* \"#utility.yul\":1731:1758   */\n      mstore\n        /* \"#utility.yul\":1610:1764   */\n      pop\n      pop\n      pop\n      jump\t// out\n        /* \"#utility.yul\":1770:2182   */\n    tag_33:\n        /* \"#utility.yul\":1848:1853   */\n      0x00\n        /* \"#utility.yul\":1873:1939   */\n      tag_75\n        /* \"#utility.yul\":1889:1938   */\n      tag_76\n        /* \"#utility.yul\":1931:1937   */\n      dup5\n        /* \"#utility.yul\":1889:1938   */\n      tag_31\n      jump\t// in\n    tag_76:\n        /* \"#utility.yul\":1873:1939   */\n      tag_30\n      jump\t// in\n    tag_75:\n        /* \"#utility.yul\":1864:1939   */\n      swap1\n      pop\n        /* \"#utility.yul\":1962:1968   */\n      dup3\n        /* \"#utility.yul\":1955:1960   */\n      dup2\n        /* \"#utility.yul\":1948:1969   */\n      mstore\n        /* \"#utility.yul\":2000:2004   */\n      0x20\n        /* \"#utility.yul\":1993:1998   */\n      dup2\n        /* \"#utility.yul\":1989:2005   */\n      add\n        /* \"#utility.yul\":2038:2041   */\n      dup5\n        /* \"#utility.yul\":2029:2035   */\n      dup5\n        /* \"#utility.yul\":2024:2027   */\n      dup5\n        /* \"#utility.yul\":2020:2036   */\n      add\n        /* \"#utility.yul\":2017:2042   */\n      gt\n        /* \"#utility.yul\":2014:2126   */\n      iszero\n      tag_77\n      jumpi\n        /* \"#utility.yul\":2045:2124   */\n      tag_78\n      tag_26\n      jump\t// in\n    tag_78:\n        /* \"#utility.yul\":2014:2126   */\n    tag_77:\n        /* \"#utility.yul\":2135:2176   */\n      tag_79\n        /* \"#utility.yul\":2169:2175   */\n      dup5\n        /* \"#utility.yul\":2164:2167   */\n      dup3\n        /* \"#utility.yul\":2159:2162   */\n      dup6\n        /* \"#utility.yul\":2135:2176   */\n      tag_32\n      jump\t// in\n    tag_79:\n        /* \"#utility.yul\":1854:2182   */\n      pop\n        /* \"#utility.yul\":1770:2182   */\n      swap4\n      swap3\n      pop\n      pop\n      pop\n      jump\t// out\n        /* \"#utility.yul\":2202:2542   */\n    tag_34:\n        /* \"#utility.yul\":2258:2263   */\n      0x00\n        /* \"#utility.yul\":2307:2310   */\n      dup3\n        /* \"#utility.yul\":2300:2304   */\n      0x1f\n        /* \"#utility.yul\":2292:2298   */\n      dup4\n        /* \"#utility.yul\":2288:2305   */\n      add\n        /* \"#utility.yul\":2284:2311   */\n      slt\n        /* \"#utility.yul\":2274:2396   */\n      tag_81\n      jumpi\n        /* \"#utility.yul\":2315:2394   */\n      tag_82\n      tag_25\n      jump\t// in\n    tag_82:\n        /* \"#utility.yul\":2274:2396   */\n    tag_81:\n        /* \"#utility.yul\":2432:2438   */\n      dup2\n        /* \"#utility.yul\":2419:2439   */\n      calldataload\n        /* \"#utility.yul\":2457:2536   */\n      tag_83\n        /* \"#utility.yul\":2532:2535   */\n      dup5\n        /* \"#utility.yul\":2524:2530   */\n      dup3\n        /* \"#utility.yul\":2517:2521   */\n      0x20\n        /* \"#utility.yul\":2509:2515   */\n      dup7\n        /* \"#utility.yul\":2505:2522   */\n      add\n        /* \"#utility.yul\":2457:2536   */\n      tag_33\n      jump\t// in\n    tag_83:\n        /* \"#utility.yul\":2448:2536   */\n      swap2\n      pop\n        /* \"#utility.yul\":2264:2542   */\n      pop\n        /* \"#utility.yul\":2202:2542   */\n      swap3\n      swap2\n      pop\n      pop\n      jump\t// out\n        /* \"#utility.yul\":2548:2625   */\n    tag_35:\n        /* \"#utility.yul\":2585:2592   */\n      0x00\n        /* \"#utility.yul\":2614:2619   */\n      dup2\n        /* \"#utility.yul\":2603:2619   */\n      swap1\n      pop\n        /* \"#utility.yul\":2548:2625   */\n      swap2\n      swap1\n      pop\n      jump\t// out\n        /* \"#utility.yul\":2631:2753   */\n    tag_36:\n        /* \"#utility.yul\":2704:2728   */\n      tag_86\n        /* \"#utility.yul\":2722:2727   */\n      dup2\n        /* \"#utility.yul\":2704:2728   */\n      tag_35\n      jump\t// in\n    tag_86:\n        /* \"#utility.yul\":2697:2702   */\n      dup2\n        /* \"#utility.yul\":2694:2729   */\n      eq\n        /* \"#utility.yul\":2684:2747   */\n      tag_87\n      jumpi\n        /* \"#utility.yul\":2743:2744   */\n      0x00\n        /* \"#utility.yul\":2740:2741   */\n      dup1\n        /* \"#utility.yul\":2733:2745   */\n      revert\n        /* \"#utility.yul\":2684:2747   */\n    tag_87:\n        /* \"#utility.yul\":2631:2753   */\n      pop\n      jump\t// out\n        /* \"#utility.yul\":2759:2898   */\n    tag_37:\n        /* \"#utility.yul\":2805:2810   */\n      0x00\n        /* \"#utility.yul\":2843:2849   */\n      dup2\n        /* \"#utility.yul\":2830:2850   */\n      calldataload\n        /* \"#utility.yul\":2821:2850   */\n      swap1\n      pop\n        /* \"#utility.yul\":2859:2892   */\n      tag_89\n        /* \"#utility.yul\":2886:2891   */\n      dup2\n        /* \"#utility.yul\":2859:2892   */\n      tag_36\n      jump\t// in\n    tag_89:\n        /* \"#utility.yul\":2759:2898   */\n      swap3\n      swap2\n      pop\n      pop\n      jump\t// out\n        /* \"#utility.yul\":2904:3030   */\n    tag_38:\n        /* \"#utility.yul\":2941:2948   */\n      0x00\n        /* \"#utility.yul\":2981:3023   */\n      0xffffffffffffffffffffffffffffffffffffffff\n        /* \"#utility.yul\":2974:2979   */\n      dup3\n        /* \"#utility.yul\":2970:3024   */\n      and\n        /* \"#utility.yul\":2959:3024   */\n      swap1\n      pop\n        /* \"#utility.yul\":2904:3030   */\n      swap2\n      swap1\n      pop\n      jump\t// out\n        /* \"#utility.yul\":3036:3132   */\n    tag_39:\n        /* \"#utility.yul\":3073:3080   */\n      0x00\n        /* \"#utility.yul\":3102:3126   */\n      tag_92\n        /* \"#utility.yul\":3120:3125   */\n      dup3\n        /* \"#utility.yul\":3102:3126   */\n      tag_38\n      jump\t// in\n    tag_92:\n        /* \"#utility.yul\":3091:3126   */\n      swap1\n      pop\n        /* \"#utility.yul\":3036:3132   */\n      swap2\n      swap1\n      pop\n      jump\t// out\n        /* \"#utility.yul\":3138:3260   */\n    tag_40:\n        /* \"#utility.yul\":3211:3235   */\n      tag_94\n        /* \"#utility.yul\":3229:3234   */\n      dup2\n        /* \"#utility.yul\":3211:3235   */\n      tag_39\n      jump\t// in\n    tag_94:\n        /* \"#utility.yul\":3204:3209   */\n      dup2\n        /* \"#utility.yul\":3201:3236   */\n      eq\n        /* \"#utility.yul\":3191:3254   */\n      tag_95\n      jumpi\n        /* \"#utility.yul\":3250:3251   */\n      0x00\n        /* \"#utility.yul\":3247:3248   */\n      dup1\n        /* \"#utility.yul\":3240:3252   */\n      revert\n        /* \"#utility.yul\":3191:3254   */\n    tag_95:\n        /* \"#utility.yul\":3138:3260   */\n      pop\n      jump\t// out\n        /* \"#utility.yul\":3266:3405   */\n    tag_41:\n        /* \"#utility.yul\":3312:3317   */\n      0x00\n        /* \"#utility.yul\":3350:3356   */\n      dup2\n        /* \"#utility.yul\":3337:3357   */\n      calldataload\n        /* \"#utility.yul\":3328:3357   */\n      swap1\n      pop\n        /* \"#utility.yul\":3366:3399   */\n      tag_97\n        /* \"#utility.yul\":3393:3398   */\n      dup2\n        /* \"#utility.yul\":3366:3399   */\n      tag_40\n      jump\t// in\n    tag_97:\n        /* \"#utility.yul\":3266:3405   */\n      swap3\n      swap2\n      pop\n      pop\n      jump\t// out\n        /* \"#utility.yul\":3411:4210   */\n    tag_7:\n        /* \"#utility.yul\":3498:3504   */\n      0x00\n        /* \"#utility.yul\":3506:3512   */\n      dup1\n        /* \"#utility.yul\":3514:3520   */\n      0x00\n        /* \"#utility.yul\":3563:3565   */\n      0x60\n        /* \"#utility.yul\":3551:3560   */\n      dup5\n        /* \"#utility.yul\":3542:3549   */\n      dup7\n        /* \"#utility.yul\":3538:3561   */\n      sub\n        /* \"#utility.yul\":3534:3566   */\n      slt\n        /* \"#utility.yul\":3531:3650   */\n      iszero\n      tag_99\n      jumpi\n        /* \"#utility.yul\":3569:3648   */\n      tag_100\n      tag_23\n      jump\t// in\n    tag_100:\n        /* \"#utility.yul\":3531:3650   */\n    tag_99:\n        /* \"#utility.yul\":3717:3718   */\n      0x00\n        /* \"#utility.yul\":3706:3715   */\n      dup5\n        /* \"#utility.yul\":3702:3719   */\n      add\n        /* \"#utility.yul\":3689:3720   */\n      calldataload\n        /* \"#utility.yul\":3747:3765   */\n      0xffffffffffffffff\n        /* \"#utility.yul\":3739:3745   */\n      dup2\n        /* \"#utility.yul\":3736:3766   */\n      gt\n        /* \"#utility.yul\":3733:3850   */\n      iszero\n      tag_101\n      jumpi\n        /* \"#utility.yul\":3769:3848   */\n      tag_102\n      tag_24\n      jump\t// in\n    tag_102:\n        /* \"#utility.yul\":3733:3850   */\n    tag_101:\n        /* \"#utility.yul\":3874:3937   */\n      tag_103\n        /* \"#utility.yul\":3929:3936   */\n      dup7\n        /* \"#utility.yul\":3920:3926   */\n      dup3\n        /* \"#utility.yul\":3909:3918   */\n      dup8\n        /* \"#utility.yul\":3905:3927   */\n      add\n        /* \"#utility.yul\":3874:3937   */\n      tag_34\n      jump\t// in\n    tag_103:\n        /* \"#utility.yul\":3864:3937   */\n      swap4\n      pop\n        /* \"#utility.yul\":3660:3947   */\n      pop\n        /* \"#utility.yul\":3986:3988   */\n      0x20\n        /* \"#utility.yul\":4012:4065   */\n      tag_104\n        /* \"#utility.yul\":4057:4064   */\n      dup7\n        /* \"#utility.yul\":4048:4054   */\n      dup3\n        /* \"#utility.yul\":4037:4046   */\n      dup8\n        /* \"#utility.yul\":4033:4055   */\n      add\n        /* \"#utility.yul\":4012:4065   */\n      tag_37\n      jump\t// in\n    tag_104:\n        /* \"#utility.yul\":4002:4065   */\n      swap3\n      pop\n        /* \"#utility.yul\":3957:4075   */\n      pop\n        /* \"#utility.yul\":4114:4116   */\n      0x40\n        /* \"#utility.yul\":4140:4193   */\n      tag_105\n        /* \"#utility.yul\":4185:4192   */\n      dup7\n        /* \"#utility.yul\":4176:4182   */\n      dup3\n        /* \"#utility.yul\":4165:4174   */\n      dup8\n        /* \"#utility.yul\":4161:4183   */\n      add\n        /* \"#utility.yul\":4140:4193   */\n      tag_41\n      jump\t// in\n    tag_105:\n        /* \"#utility.yul\":4130:4193   */\n      swap2\n      pop\n        /* \"#utility.yul\":4085:4203   */\n      pop\n        /* \"#utility.yul\":3411:4210   */\n      swap3\n      pop\n      swap3\n      pop\n      swap3\n      jump\t// out\n        /* \"#utility.yul\":4216:4293   */\n    tag_42:\n        /* \"#utility.yul\":4253:4260   */\n      0x00\n        /* \"#utility.yul\":4282:4287   */\n      dup2\n        /* \"#utility.yul\":4271:4287   */\n      swap1\n      pop\n        /* \"#utility.yul\":4216:4293   */\n      swap2\n      swap1\n      pop\n      jump\t// out\n        /* \"#utility.yul\":4299:4417   */\n    tag_43:\n        /* \"#utility.yul\":4386:4410   */\n      tag_108\n        /* \"#utility.yul\":4404:4409   */\n      dup2\n        /* \"#utility.yul\":4386:4410   */\n      tag_42\n      jump\t// in\n    tag_108:\n        /* \"#utility.yul\":4381:4384   */\n      dup3\n        /* \"#utility.yul\":4374:4411   */\n      mstore\n        /* \"#utility.yul\":4299:4417   */\n      pop\n      pop\n      jump\t// out\n        /* \"#utility.yul\":4423:4645   */\n    tag_10:\n        /* \"#utility.yul\":4516:4520   */\n      0x00\n        /* \"#utility.yul\":4554:4556   */\n      0x20\n        /* \"#utility.yul\":4543:4552   */\n      dup3\n        /* \"#utility.yul\":4539:4557   */\n      add\n        /* \"#utility.yul\":4531:4557   */\n      swap1\n      pop\n        /* \"#utility.yul\":4567:4638   */\n      tag_110\n        /* \"#utility.yul\":4635:4636   */\n      0x00\n        /* \"#utility.yul\":4624:4633   */\n      dup4\n        /* \"#utility.yul\":4620:4637   */\n      add\n        /* \"#utility.yul\":4611:4617   */\n      dup5\n        /* \"#utility.yul\":4567:4638   */\n      tag_43\n      jump\t// in\n    tag_110:\n        /* \"#utility.yul\":4423:4645   */\n      swap3\n      swap2\n      pop\n      pop\n      jump\t// out\n        /* \"#utility.yul\":4651:5485   */\n    tag_13:\n        /* \"#utility.yul\":4739:4745   */\n      0x00\n        /* \"#utility.yul\":4747:4753   */\n      dup1\n        /* \"#utility.yul\":4796:4798   */\n      0x40\n        /* \"#utility.yul\":4784:4793   */\n      dup4\n        /* \"#utility.yul\":4775:4782   */\n      dup6\n        /* \"#utility.yul\":4771:4794   */\n      sub\n        /* \"#utility.yul\":4767:4799   */\n      slt\n        /* \"#utility.yul\":4764:4883   */\n      iszero\n      tag_112\n      jumpi\n        /* \"#utility.yul\":4802:4881   */\n      tag_113\n      tag_23\n      jump\t// in\n    tag_113:\n        /* \"#utility.yul\":4764:4883   */\n    tag_112:\n        /* \"#utility.yul\":4950:4951   */\n      0x00\n        /* \"#utility.yul\":4939:4948   */\n      dup4\n        /* \"#utility.yul\":4935:4952   */\n      add\n        /* \"#utility.yul\":4922:4953   */\n      calldataload\n        /* \"#utility.yul\":4980:4998   */\n      0xffffffffffffffff\n        /* \"#utility.yul\":4972:4978   */\n      dup2\n        /* \"#utility.yul\":4969:4999   */\n      gt\n        /* \"#utility.yul\":4966:5083   */\n      iszero\n      tag_114\n      jumpi\n        /* \"#utility.yul\":5002:5081   */\n      tag_115\n      tag_24\n      jump\t// in\n    tag_115:\n        /* \"#utility.yul\":4966:5083   */\n    tag_114:\n        /* \"#utility.yul\":5107:5170   */\n      tag_116\n        /* \"#utility.yul\":5162:5169   */\n      dup6\n        /* \"#utility.yul\":5153:5159   */\n      dup3\n        /* \"#utility.yul\":5142:5151   */\n      dup7\n        /* \"#utility.yul\":5138:5160   */\n      add\n        /* \"#utility.yul\":5107:5170   */\n      tag_34\n      jump\t// in\n    tag_116:\n        /* \"#utility.yul\":5097:5170   */\n      swap3\n      pop\n        /* \"#utility.yul\":4893:5180   */\n      pop\n        /* \"#utility.yul\":5247:5249   */\n      0x20\n        /* \"#utility.yul\":5236:5245   */\n      dup4\n        /* \"#utility.yul\":5232:5250   */\n      add\n        /* \"#utility.yul\":5219:5251   */\n      calldataload\n        /* \"#utility.yul\":5278:5296   */\n      0xffffffffffffffff\n        /* \"#utility.yul\":5270:5276   */\n      dup2\n        /* \"#utility.yul\":5267:5297   */\n      gt\n        /* \"#utility.yul\":5264:5381   */\n      iszero\n      tag_117\n      jumpi\n        /* \"#utility.yul\":5300:5379   */\n      tag_118\n      tag_24\n      jump\t// in\n    tag_118:\n        /* \"#utility.yul\":5264:5381   */\n    tag_117:\n        /* \"#utility.yul\":5405:5468   */\n      tag_119\n        /* \"#utility.yul\":5460:5467   */\n      dup6\n        /* \"#utility.yul\":5451:5457   */\n      dup3\n        /* \"#utility.yul\":5440:5449   */\n      dup7\n        /* \"#utility.yul\":5436:5458   */\n      add\n        /* \"#utility.yul\":5405:5468   */\n      tag_34\n      jump\t// in\n    tag_119:\n        /* \"#utility.yul\":5395:5468   */\n      swap2\n      pop\n        /* \"#utility.yul\":5190:5478   */\n      pop\n        /* \"#utility.yul\":4651:5485   */\n      swap3\n      pop\n      swap3\n      swap1\n      pop\n      jump\t// out\n        /* \"#utility.yul\":5491:5590   */\n    tag_44:\n        /* \"#utility.yul\":5543:5549   */\n      0x00\n        /* \"#utility.yul\":5577:5582   */\n      dup2\n        /* \"#utility.yul\":5571:5583   */\n      mload\n        /* \"#utility.yul\":5561:5583   */\n      swap1\n      pop\n        /* \"#utility.yul\":5491:5590   */\n      swap2\n      swap1\n      pop\n      jump\t// out\n        /* \"#utility.yul\":5596:5744   */\n    tag_45:\n        /* \"#utility.yul\":5698:5709   */\n      0x00\n        /* \"#utility.yul\":5735:5738   */\n      dup2\n        /* \"#utility.yul\":5720:5738   */\n      swap1\n      pop\n        /* \"#utility.yul\":5596:5744   */\n      swap3\n      swap2\n      pop\n      pop\n      jump\t// out\n        /* \"#utility.yul\":5750:6057   */\n    tag_46:\n        /* \"#utility.yul\":5818:5819   */\n      0x00\n        /* \"#utility.yul\":5828:5941   */\n    tag_123:\n        /* \"#utility.yul\":5842:5848   */\n      dup4\n        /* \"#utility.yul\":5839:5840   */\n      dup2\n        /* \"#utility.yul\":5836:5849   */\n      lt\n        /* \"#utility.yul\":5828:5941   */\n      iszero\n      tag_125\n      jumpi\n        /* \"#utility.yul\":5927:5928   */\n      dup1\n        /* \"#utility.yul\":5922:5925   */\n      dup3\n        /* \"#utility.yul\":5918:5929   */\n      add\n        /* \"#utility.yul\":5912:5930   */\n      mload\n        /* \"#utility.yul\":5908:5909   */\n      dup2\n        /* \"#utility.yul\":5903:5906   */\n      dup5\n        /* \"#utility.yul\":5899:5910   */\n      add\n        /* \"#utility.yul\":5892:5931   */\n      mstore\n        /* \"#utility.yul\":5864:5866   */\n      0x20\n        /* \"#utility.yul\":5861:5862   */\n      dup2\n        /* \"#utility.yul\":5857:5867   */\n      add\n        /* \"#utility.yul\":5852:5867   */\n      swap1\n      pop\n        /* \"#utility.yul\":5828:5941   */\n      jump(tag_123)\n    tag_125:\n        /* \"#utility.yul\":5959:5965   */\n      dup4\n        /* \"#utility.yul\":5956:5957   */\n      dup2\n        /* \"#utility.yul\":5953:5966   */\n      gt\n        /* \"#utility.yul\":5950:6051   */\n      iszero\n      tag_126\n      jumpi\n        /* \"#utility.yul\":6039:6040   */\n      0x00\n        /* \"#utility.yul\":6030:6036   */\n      dup5\n        /* \"#utility.yul\":6025:6028   */\n      dup5\n        /* \"#utility.yul\":6021:6037   */\n      add\n        /* \"#utility.yul\":6014:6041   */\n      mstore\n        /* \"#utility.yul\":5950:6051   */\n    tag_126:\n        /* \"#utility.yul\":5799:6057   */\n      pop\n        /* \"#utility.yul\":5750:6057   */\n      pop\n      pop\n      pop\n      jump\t// out\n        /* \"#utility.yul\":6063:6440   */\n    tag_47:\n        /* \"#utility.yul\":6169:6172   */\n      0x00\n        /* \"#utility.yul\":6197:6236   */\n      tag_128\n        /* \"#utility.yul\":6230:6235   */\n      dup3\n        /* \"#utility.yul\":6197:6236   */\n      tag_44\n      jump\t// in\n    tag_128:\n        /* \"#utility.yul\":6252:6341   */\n      tag_129\n        /* \"#utility.yul\":6334:6340   */\n      dup2\n        /* \"#utility.yul\":6329:6332   */\n      dup6\n        /* \"#utility.yul\":6252:6341   */\n      tag_45\n      jump\t// in\n    tag_129:\n        /* \"#utility.yul\":6245:6341   */\n      swap4\n      pop\n        /* \"#utility.yul\":6350:6402   */\n      tag_130\n        /* \"#utility.yul\":6395:6401   */\n      dup2\n        /* \"#utility.yul\":6390:6393   */\n      dup6\n        /* \"#utility.yul\":6383:6387   */\n      0x20\n        /* \"#utility.yul\":6376:6381   */\n      dup7\n        /* \"#utility.yul\":6372:6388   */\n      add\n        /* \"#utility.yul\":6350:6402   */\n      tag_46\n      jump\t// in\n    tag_130:\n        /* \"#utility.yul\":6427:6433   */\n      dup1\n        /* \"#utility.yul\":6422:6425   */\n      dup5\n        /* \"#utility.yul\":6418:6434   */\n      add\n        /* \"#utility.yul\":6411:6434   */\n      swap2\n      pop\n        /* \"#utility.yul\":6173:6440   */\n      pop\n        /* \"#utility.yul\":6063:6440   */\n      swap3\n      swap2\n      pop\n      pop\n      jump\t// out\n        /* \"#utility.yul\":6446:6525   */\n    tag_48:\n        /* \"#utility.yul\":6485:6492   */\n      0x00\n        /* \"#utility.yul\":6514:6519   */\n      dup2\n        /* \"#utility.yul\":6503:6519   */\n      swap1\n      pop\n        /* \"#utility.yul\":6446:6525   */\n      swap2\n      swap1\n      pop\n      jump\t// out\n        /* \"#utility.yul\":6531:6688   */\n    tag_49:\n        /* \"#utility.yul\":6636:6681   */\n      tag_133\n        /* \"#utility.yul\":6656:6680   */\n      tag_134\n        /* \"#utility.yul\":6674:6679   */\n      dup3\n        /* \"#utility.yul\":6656:6680   */\n      tag_35\n      jump\t// in\n    tag_134:\n        /* \"#utility.yul\":6636:6681   */\n      tag_48\n      jump\t// in\n    tag_133:\n        /* \"#utility.yul\":6631:6634   */\n      dup3\n        /* \"#utility.yul\":6624:6682   */\n      mstore\n        /* \"#utility.yul\":6531:6688   */\n      pop\n      pop\n      jump\t// out\n        /* \"#utility.yul\":6694:6788   */\n    tag_50:\n        /* \"#utility.yul\":6727:6735   */\n      0x00\n        /* \"#utility.yul\":6775:6780   */\n      dup2\n        /* \"#utility.yul\":6771:6773   */\n      0x60\n        /* \"#utility.yul\":6767:6781   */\n      shl\n        /* \"#utility.yul\":6746:6781   */\n      swap1\n      pop\n        /* \"#utility.yul\":6694:6788   */\n      swap2\n      swap1\n      pop\n      jump\t// out\n        /* \"#utility.yul\":6794:6888   */\n    tag_51:\n        /* \"#utility.yul\":6833:6840   */\n      0x00\n        /* \"#utility.yul\":6862:6882   */\n      tag_137\n        /* \"#utility.yul\":6876:6881   */\n      dup3\n        /* \"#utility.yul\":6862:6882   */\n      tag_50\n      jump\t// in\n    tag_137:\n        /* \"#utility.yul\":6851:6882   */\n      swap1\n      pop\n        /* \"#utility.yul\":6794:6888   */\n      swap2\n      swap1\n      pop\n      jump\t// out\n        /* \"#utility.yul\":6894:6994   */\n    tag_52:\n        /* \"#utility.yul\":6933:6940   */\n      0x00\n        /* \"#utility.yul\":6962:6988   */\n      tag_139\n        /* \"#utility.yul\":6982:6987   */\n      dup3\n        /* \"#utility.yul\":6962:6988   */\n      tag_51\n      jump\t// in\n    tag_139:\n        /* \"#utility.yul\":6951:6988   */\n      swap1\n      pop\n        /* \"#utility.yul\":6894:6994   */\n      swap2\n      swap1\n      pop\n      jump\t// out\n        /* \"#utility.yul\":7000:7157   */\n    tag_53:\n        /* \"#utility.yul\":7105:7150   */\n      tag_141\n        /* \"#utility.yul\":7125:7149   */\n      tag_142\n        /* \"#utility.yul\":7143:7148   */\n      dup3\n        /* \"#utility.yul\":7125:7149   */\n      tag_39\n      jump\t// in\n    tag_142:\n        /* \"#utility.yul\":7105:7150   */\n      tag_52\n      jump\t// in\n    tag_141:\n        /* \"#utility.yul\":7100:7103   */\n      dup3\n        /* \"#utility.yul\":7093:7151   */\n      mstore\n        /* \"#utility.yul\":7000:7157   */\n      pop\n      pop\n      jump\t// out\n        /* \"#utility.yul\":7163:7720   */\n    tag_18:\n        /* \"#utility.yul\":7351:7354   */\n      0x00\n        /* \"#utility.yul\":7373:7468   */\n      tag_144\n        /* \"#utility.yul\":7464:7467   */\n      dup3\n        /* \"#utility.yul\":7455:7461   */\n      dup7\n        /* \"#utility.yul\":7373:7468   */\n      tag_47\n      jump\t// in\n    tag_144:\n        /* \"#utility.yul\":7366:7468   */\n      swap2\n      pop\n        /* \"#utility.yul\":7478:7553   */\n      tag_145\n        /* \"#utility.yul\":7549:7552   */\n      dup3\n        /* \"#utility.yul\":7540:7546   */\n      dup6\n        /* \"#utility.yul\":7478:7553   */\n      tag_49\n      jump\t// in\n    tag_145:\n        /* \"#utility.yul\":7578:7580   */\n      0x20\n        /* \"#utility.yul\":7573:7576   */\n      dup3\n        /* \"#utility.yul\":7569:7581   */\n      add\n        /* \"#utility.yul\":7562:7581   */\n      swap2\n      pop\n        /* \"#utility.yul\":7591:7666   */\n      tag_146\n        /* \"#utility.yul\":7662:7665   */\n      dup3\n        /* \"#utility.yul\":7653:7659   */\n      dup5\n        /* \"#utility.yul\":7591:7666   */\n      tag_53\n      jump\t// in\n    tag_146:\n        /* \"#utility.yul\":7691:7693   */\n      0x14\n        /* \"#utility.yul\":7686:7689   */\n      dup3\n        /* \"#utility.yul\":7682:7694   */\n      add\n        /* \"#utility.yul\":7675:7694   */\n      swap2\n      pop\n        /* \"#utility.yul\":7711:7714   */\n      dup2\n        /* \"#utility.yul\":7704:7714   */\n      swap1\n      pop\n        /* \"#utility.yul\":7163:7720   */\n      swap5\n      swap4\n      pop\n      pop\n      pop\n      pop\n      jump\t// out\n        /* \"#utility.yul\":7726:8161   */\n    tag_21:\n        /* \"#utility.yul\":7906:7909   */\n      0x00\n        /* \"#utility.yul\":7928:8023   */\n      tag_148\n        /* \"#utility.yul\":8019:8022   */\n      dup3\n        /* \"#utility.yul\":8010:8016   */\n      dup6\n        /* \"#utility.yul\":7928:8023   */\n      tag_47\n      jump\t// in\n    tag_148:\n        /* \"#utility.yul\":7921:8023   */\n      swap2\n      pop\n        /* \"#utility.yul\":8040:8135   */\n      tag_149\n        /* \"#utility.yul\":8131:8134   */\n      dup3\n        /* \"#utility.yul\":8122:8128   */\n      dup5\n        /* \"#utility.yul\":8040:8135   */\n      tag_47\n      jump\t// in\n    tag_149:\n        /* \"#utility.yul\":8033:8135   */\n      swap2\n      pop\n        /* \"#utility.yul\":8152:8155   */\n      dup2\n        /* \"#utility.yul\":8145:8155   */\n      swap1\n      pop\n        /* \"#utility.yul\":7726:8161   */\n      swap4\n      swap3\n      pop\n      pop\n      pop\n      jump\t// out\n\n    auxdata: 0xa264697066735822122090e6932cef7ba739088be9dd0c4dc23ea3e538d59d83f24d9439735a14dc393364736f6c634300080e0033\n}\n",
				"bytecode": {
					"linkReferences": {},
					"object": "608060405234801561001057600080fd5b50610583806100206000396000f3fe608060405234801561001057600080fd5b50600436106100365760003560e01c80635dda416e1461003b5780637b7fb9821461006b575b600080fd5b610055600480360381019061005091906102f2565b61009b565b604051610062919061037a565b60405180910390f35b61008560048036038101906100809190610395565b6100d1565b604051610092919061037a565b60405180910390f35b60008383836040516020016100b2939291906104f0565b6040516020818303038152906040528051906020012090509392505050565b600082826040516020016100e6929190610529565b60405160208183030381529060405280519060200120905092915050565b6000604051905090565b600080fd5b600080fd5b600080fd5b600080fd5b6000601f19601f8301169050919050565b7f4e487b7100000000000000000000000000000000000000000000000000000000600052604160045260246000fd5b61016b82610122565b810181811067ffffffffffffffff8211171561018a57610189610133565b5b80604052505050565b600061019d610104565b90506101a98282610162565b919050565b600067ffffffffffffffff8211156101c9576101c8610133565b5b6101d282610122565b9050602081019050919050565b82818337600083830152505050565b60006102016101fc846101ae565b610193565b90508281526020810184848401111561021d5761021c61011d565b5b6102288482856101df565b509392505050565b600082601f83011261024557610244610118565b5b81356102558482602086016101ee565b91505092915050565b6000819050919050565b6102718161025e565b811461027c57600080fd5b50565b60008135905061028e81610268565b92915050565b600073ffffffffffffffffffffffffffffffffffffffff82169050919050565b60006102bf82610294565b9050919050565b6102cf816102b4565b81146102da57600080fd5b50565b6000813590506102ec816102c6565b92915050565b60008060006060848603121561030b5761030a61010e565b5b600084013567ffffffffffffffff81111561032957610328610113565b5b61033586828701610230565b93505060206103468682870161027f565b9250506040610357868287016102dd565b9150509250925092565b6000819050919050565b61037481610361565b82525050565b600060208201905061038f600083018461036b565b92915050565b600080604083850312156103ac576103ab61010e565b5b600083013567ffffffffffffffff8111156103ca576103c9610113565b5b6103d685828601610230565b925050602083013567ffffffffffffffff8111156103f7576103f6610113565b5b61040385828601610230565b9150509250929050565b600081519050919050565b600081905092915050565b60005b83811015610441578082015181840152602081019050610426565b83811115610450576000848401525b50505050565b60006104618261040d565b61046b8185610418565b935061047b818560208601610423565b80840191505092915050565b6000819050919050565b6104a261049d8261025e565b610487565b82525050565b60008160601b9050919050565b60006104c0826104a8565b9050919050565b60006104d2826104b5565b9050919050565b6104ea6104e5826102b4565b6104c7565b82525050565b60006104fc8286610456565b91506105088285610491565b60208201915061051882846104d9565b601482019150819050949350505050565b60006105358285610456565b91506105418284610456565b9150819050939250505056fea264697066735822122090e6932cef7ba739088be9dd0c4dc23ea3e538d59d83f24d9439735a14dc393364736f6c634300080e0033",
					"opcodes": "PUSH1 0x80 PUSH1 0x40 MSTORE CALLVALUE DUP1 ISZERO PUSH2 0x10 JUMPI PUSH1 0x0 DUP1 REVERT JUMPDEST POP PUSH2 0x583 DUP1 PUSH2 0x20 PUSH1 0x0 CODECOPY PUSH1 0x0 RETURN INVALID PUSH1 0x80 PUSH1 0x40 MSTORE CALLVALUE DUP1 ISZERO PUSH2 0x10 JUMPI PUSH1 0x0 DUP1 REVERT JUMPDEST POP PUSH1 0x4 CALLDATASIZE LT PUSH2 0x36 JUMPI PUSH1 0x0 CALLDATALOAD PUSH1 0xE0 SHR DUP1 PUSH4 0x5DDA416E EQ PUSH2 0x3B JUMPI DUP1 PUSH4 0x7B7FB982 EQ PUSH2 0x6B JUMPI JUMPDEST PUSH1 0x0 DUP1 REVERT JUMPDEST PUSH2 0x55 PUSH1 0x4 DUP1 CALLDATASIZE SUB DUP2 ADD SWAP1 PUSH2 0x50 SWAP2 SWAP1 PUSH2 0x2F2 JUMP JUMPDEST PUSH2 0x9B JUMP JUMPDEST PUSH1 0x40 MLOAD PUSH2 0x62 SWAP2 SWAP1 PUSH2 0x37A JUMP JUMPDEST PUSH1 0x40 MLOAD DUP1 SWAP2 SUB SWAP1 RETURN JUMPDEST PUSH2 0x85 PUSH1 0x4 DUP1 CALLDATASIZE SUB DUP2 ADD SWAP1 PUSH2 0x80 SWAP2 SWAP1 PUSH2 0x395 JUMP JUMPDEST PUSH2 0xD1 JUMP JUMPDEST PUSH1 0x40 MLOAD PUSH2 0x92 SWAP2 SWAP1 PUSH2 0x37A JUMP JUMPDEST PUSH1 0x40 MLOAD DUP1 SWAP2 SUB SWAP1 RETURN JUMPDEST PUSH1 0x0 DUP4 DUP4 DUP4 PUSH1 0x40 MLOAD PUSH1 0x20 ADD PUSH2 0xB2 SWAP4 SWAP3 SWAP2 SWAP1 PUSH2 0x4F0 JUMP JUMPDEST PUSH1 0x40 MLOAD PUSH1 0x20 DUP2 DUP4 SUB SUB DUP2 MSTORE SWAP1 PUSH1 0x40 MSTORE DUP1 MLOAD SWAP1 PUSH1 0x20 ADD KECCAK256 SWAP1 POP SWAP4 SWAP3 POP POP POP JUMP JUMPDEST PUSH1 0x0 DUP3 DUP3 PUSH1 0x40 MLOAD PUSH1 0x20 ADD PUSH2 0xE6 SWAP3 SWAP2 SWAP1 PUSH2 0x529 JUMP JUMPDEST PUSH1 0x40 MLOAD PUSH1 0x20 DUP2 DUP4 SUB SUB DUP2 MSTORE SWAP1 PUSH1 0x40 MSTORE DUP1 MLOAD SWAP1 PUSH1 0x20 ADD KECCAK256 SWAP1 POP SWAP3 SWAP2 POP POP JUMP JUMPDEST PUSH1 0x0 PUSH1 0x40 MLOAD SWAP1 POP SWAP1 JUMP JUMPDEST PUSH1 0x0 DUP1 REVERT JUMPDEST PUSH1 0x0 DUP1 REVERT JUMPDEST PUSH1 0x0 DUP1 REVERT JUMPDEST PUSH1 0x0 DUP1 REVERT JUMPDEST PUSH1 0x0 PUSH1 0x1F NOT PUSH1 0x1F DUP4 ADD AND SWAP1 POP SWAP2 SWAP1 POP JUMP JUMPDEST PUSH32 0x4E487B7100000000000000000000000000000000000000000000000000000000 PUSH1 0x0 MSTORE PUSH1 0x41 PUSH1 0x4 MSTORE PUSH1 0x24 PUSH1 0x0 REVERT JUMPDEST PUSH2 0x16B DUP3 PUSH2 0x122 JUMP JUMPDEST DUP2 ADD DUP2 DUP2 LT PUSH8 0xFFFFFFFFFFFFFFFF DUP3 GT OR ISZERO PUSH2 0x18A JUMPI PUSH2 0x189 PUSH2 0x133 JUMP JUMPDEST JUMPDEST DUP1 PUSH1 0x40 MSTORE POP POP POP JUMP JUMPDEST PUSH1 0x0 PUSH2 0x19D PUSH2 0x104 JUMP JUMPDEST SWAP1 POP PUSH2 0x1A9 DUP3 DUP3 PUSH2 0x162 JUMP JUMPDEST SWAP2 SWAP1 POP JUMP JUMPDEST PUSH1 0x0 PUSH8 0xFFFFFFFFFFFFFFFF DUP3 GT ISZERO PUSH2 0x1C9 JUMPI PUSH2 0x1C8 PUSH2 0x133 JUMP JUMPDEST JUMPDEST PUSH2 0x1D2 DUP3 PUSH2 0x122 JUMP JUMPDEST SWAP1 POP PUSH1 0x20 DUP2 ADD SWAP1 POP SWAP2 SWAP1 POP JUMP JUMPDEST DUP3 DUP2 DUP4 CALLDATACOPY PUSH1 0x0 DUP4 DUP4 ADD MSTORE POP POP POP JUMP JUMPDEST PUSH1 0x0 PUSH2 0x201 PUSH2 0x1FC DUP5 PUSH2 0x1AE JUMP JUMPDEST PUSH2 0x193 JUMP JUMPDEST SWAP1 POP DUP3 DUP2 MSTORE PUSH1 0x20 DUP2 ADD DUP5 DUP5 DUP5 ADD GT ISZERO PUSH2 0x21D JUMPI PUSH2 0x21C PUSH2 0x11D JUMP JUMPDEST JUMPDEST PUSH2 0x228 DUP5 DUP3 DUP6 PUSH2 0x1DF JUMP JUMPDEST POP SWAP4 SWAP3 POP POP POP JUMP JUMPDEST PUSH1 0x0 DUP3 PUSH1 0x1F DUP4 ADD SLT PUSH2 0x245 JUMPI PUSH2 0x244 PUSH2 0x118 JUMP JUMPDEST JUMPDEST DUP2 CALLDATALOAD PUSH2 0x255 DUP5 DUP3 PUSH1 0x20 DUP7 ADD PUSH2 0x1EE JUMP JUMPDEST SWAP2 POP POP SWAP3 SWAP2 POP POP JUMP JUMPDEST PUSH1 0x0 DUP2 SWAP1 POP SWAP2 SWAP1 POP JUMP JUMPDEST PUSH2 0x271 DUP2 PUSH2 0x25E JUMP JUMPDEST DUP2 EQ PUSH2 0x27C JUMPI PUSH1 0x0 DUP1 REVERT JUMPDEST POP JUMP JUMPDEST PUSH1 0x0 DUP2 CALLDATALOAD SWAP1 POP PUSH2 0x28E DUP2 PUSH2 0x268 JUMP JUMPDEST SWAP3 SWAP2 POP POP JUMP JUMPDEST PUSH1 0x0 PUSH20 0xFFFFFFFFFFFFFFFFFFFFFFFFFFFFFFFFFFFFFFFF DUP3 AND SWAP1 POP SWAP2 SWAP1 POP JUMP JUMPDEST PUSH1 0x0 PUSH2 0x2BF DUP3 PUSH2 0x294 JUMP JUMPDEST SWAP1 POP SWAP2 SWAP1 POP JUMP JUMPDEST PUSH2 0x2CF DUP2 PUSH2 0x2B4 JUMP JUMPDEST DUP2 EQ PUSH2 0x2DA JUMPI PUSH1 0x0 DUP1 REVERT JUMPDEST POP JUMP JUMPDEST PUSH1 0x0 DUP2 CALLDATALOAD SWAP1 POP PUSH2 0x2EC DUP2 PUSH2 0x2C6 JUMP JUMPDEST SWAP3 SWAP2 POP POP JUMP JUMPDEST PUSH1 0x0 DUP1 PUSH1 0x0 PUSH1 0x60 DUP5 DUP7 SUB SLT ISZERO PUSH2 0x30B JUMPI PUSH2 0x30A PUSH2 0x10E JUMP JUMPDEST JUMPDEST PUSH1 0x0 DUP5 ADD CALLDATALOAD PUSH8 0xFFFFFFFFFFFFFFFF DUP2 GT ISZERO PUSH2 0x329 JUMPI PUSH2 0x328 PUSH2 0x113 JUMP JUMPDEST JUMPDEST PUSH2 0x335 DUP7 DUP3 DUP8 ADD PUSH2 0x230 JUMP JUMPDEST SWAP4 POP POP PUSH1 0x20 PUSH2 0x346 DUP7 DUP3 DUP8 ADD PUSH2 0x27F JUMP JUMPDEST SWAP3 POP POP PUSH1 0x40 PUSH2 0x357 DUP7 DUP3 DUP8 ADD PUSH2 0x2DD JUMP JUMPDEST SWAP2 POP POP SWAP3 POP SWAP3 POP SWAP3 JUMP JUMPDEST PUSH1 0x0 DUP2 SWAP1 POP SWAP2 SWAP1 POP JUMP JUMPDEST PUSH2 0x374 DUP2 PUSH2 0x361 JUMP JUMPDEST DUP3 MSTORE POP POP JUMP JUMPDEST PUSH1 0x0 PUSH1 0x20 DUP3 ADD SWAP1 POP PUSH2 0x38F PUSH1 0x0 DUP4 ADD DUP5 PUSH2 0x36B JUMP JUMPDEST SWAP3 SWAP2 POP POP JUMP JUMPDEST PUSH1 0x0 DUP1 PUSH1 0x40 DUP4 DUP6 SUB SLT ISZERO PUSH2 0x3AC JUMPI PUSH2 0x3AB PUSH2 0x10E JUMP JUMPDEST JUMPDEST PUSH1 0x0 DUP4 ADD CALLDATALOAD PUSH8 0xFFFFFFFFFFFFFFFF DUP2 GT ISZERO PUSH2 0x3CA JUMPI PUSH2 0x3C9 PUSH2 0x113 JUMP JUMPDEST JUMPDEST PUSH2 0x3D6 DUP6 DUP3 DUP7 ADD PUSH2 0x230 JUMP JUMPDEST SWAP3 POP POP PUSH1 0x20 DUP4 ADD CALLDATALOAD PUSH8 0xFFFFFFFFFFFFFFFF DUP2 GT ISZERO PUSH2 0x3F7 JUMPI PUSH2 0x3F6 PUSH2 0x113 JUMP JUMPDEST JUMPDEST PUSH2 0x403 DUP6 DUP3 DUP7 ADD PUSH2 0x230 JUMP JUMPDEST SWAP2 POP POP SWAP3 POP SWAP3 SWAP1 POP JUMP JUMPDEST PUSH1 0x0 DUP2 MLOAD SWAP1 POP SWAP2 SWAP1 POP JUMP JUMPDEST PUSH1 0x0 DUP2 SWAP1 POP SWAP3 SWAP2 POP POP JUMP JUMPDEST PUSH1 0x0 JUMPDEST DUP4 DUP2 LT ISZERO PUSH2 0x441 JUMPI DUP1 DUP3 ADD MLOAD DUP2 DUP5 ADD MSTORE PUSH1 0x20 DUP2 ADD SWAP1 POP PUSH2 0x426 JUMP JUMPDEST DUP4 DUP2 GT ISZERO PUSH2 0x450 JUMPI PUSH1 0x0 DUP5 DUP5 ADD MSTORE JUMPDEST POP POP POP POP JUMP JUMPDEST PUSH1 0x0 PUSH2 0x461 DUP3 PUSH2 0x40D JUMP JUMPDEST PUSH2 0x46B DUP2 DUP6 PUSH2 0x418 JUMP JUMPDEST SWAP4 POP PUSH2 0x47B DUP2 DUP6 PUSH1 0x20 DUP7 ADD PUSH2 0x423 JUMP JUMPDEST DUP1 DUP5 ADD SWAP2 POP POP SWAP3 SWAP2 POP POP JUMP JUMPDEST PUSH1 0x0 DUP2 SWAP1 POP SWAP2 SWAP1 POP JUMP JUMPDEST PUSH2 0x4A2 PUSH2 0x49D DUP3 PUSH2 0x25E JUMP JUMPDEST PUSH2 0x487 JUMP JUMPDEST DUP3 MSTORE POP POP JUMP JUMPDEST PUSH1 0x0 DUP2 PUSH1 0x60 SHL SWAP1 POP SWAP2 SWAP1 POP JUMP JUMPDEST PUSH1 0x0 PUSH2 0x4C0 DUP3 PUSH2 0x4A8 JUMP JUMPDEST SWAP1 POP SWAP2 SWAP1 POP JUMP JUMPDEST PUSH1 0x0 PUSH2 0x4D2 DUP3 PUSH2 0x4B5 JUMP JUMPDEST SWAP1 POP SWAP2 SWAP1 POP JUMP JUMPDEST PUSH2 0x4EA PUSH2 0x4E5 DUP3 PUSH2 0x2B4 JUMP JUMPDEST PUSH2 0x4C7 JUMP JUMPDEST DUP3 MSTORE POP POP JUMP JUMPDEST PUSH1 0x0 PUSH2 0x4FC DUP3 DUP7 PUSH2 0x456 JUMP JUMPDEST SWAP2 POP PUSH2 0x508 DUP3 DUP6 PUSH2 0x491 JUMP JUMPDEST PUSH1 0x20 DUP3 ADD SWAP2 POP PUSH2 0x518 DUP3 DUP5 PUSH2 0x4D9 JUMP JUMPDEST PUSH1 0x14 DUP3 ADD SWAP2 POP DUP2 SWAP1 POP SWAP5 SWAP4 POP POP POP POP JUMP JUMPDEST PUSH1 0x0 PUSH2 0x535 DUP3 DUP6 PUSH2 0x456 JUMP JUMPDEST SWAP2 POP PUSH2 0x541 DUP3 DUP5 PUSH2 0x456 JUMP JUMPDEST SWAP2 POP DUP2 SWAP1 POP SWAP4 SWAP3 POP POP POP JUMP INVALID LOG2 PUSH5 0x6970667358 0x22 SLT KECCAK256 SWAP1 0xE6 SWAP4 0x2C 0xEF PUSH28 0xA739088BE9DD0C4DC23EA3E538D59D83F24D9439735A14DC39336473 PUSH16 0x6C634300080E00330000000000000000 "
				},
				"gasEstimates": {
					"creation": {
						"codeDepositCost": "282200",
						"executionCost": "324",
						"totalCost": "282524"
					},
					"external": {
						"collision(string,string)": "infinite",
						"hash(string,uint256,address)": "infinite"
					}
				},
				"methodIdentifiers": {
					"collision(string,string)": "7b7fb982",
					"hash(string,uint256,address)": "5dda416e"
				}
			},
			"storageLayout": {
				"storage": [],
				"types": null
			},
			"userdoc": {
				"kind": "user",
				"methods": {},
				"version": 1
			}
		}
	}
}